{
  "contractName": "NFTGAME",
  "abi": [
    {
      "inputs": [
        {
          "internalType": "string[]",
          "name": "characterNames",
          "type": "string[]"
        },
        {
          "internalType": "string[]",
          "name": "characterImageURIs",
          "type": "string[]"
        },
        {
          "internalType": "uint256[]",
          "name": "characterHp",
          "type": "uint256[]"
        },
        {
          "internalType": "uint256[]",
          "name": "characterAttackDmg",
          "type": "uint256[]"
        },
        {
          "internalType": "string",
          "name": "bossName",
          "type": "string"
        },
        {
          "internalType": "string",
          "name": "bossImageURI",
          "type": "string"
        },
        {
          "internalType": "uint256",
          "name": "bossHp",
          "type": "uint256"
        },
        {
          "internalType": "uint256",
          "name": "bossAttackDamage",
          "type": "uint256"
        }
      ],
      "stateMutability": "nonpayable",
      "type": "constructor"
    },
    {
      "anonymous": false,
      "inputs": [
        {
          "indexed": true,
          "internalType": "address",
          "name": "owner",
          "type": "address"
        },
        {
          "indexed": true,
          "internalType": "address",
          "name": "approved",
          "type": "address"
        },
        {
          "indexed": true,
          "internalType": "uint256",
          "name": "tokenId",
          "type": "uint256"
        }
      ],
      "name": "Approval",
      "type": "event"
    },
    {
      "anonymous": false,
      "inputs": [
        {
          "indexed": true,
          "internalType": "address",
          "name": "owner",
          "type": "address"
        },
        {
          "indexed": true,
          "internalType": "address",
          "name": "operator",
          "type": "address"
        },
        {
          "indexed": false,
          "internalType": "bool",
          "name": "approved",
          "type": "bool"
        }
      ],
      "name": "ApprovalForAll",
      "type": "event"
    },
    {
      "anonymous": false,
      "inputs": [
        {
          "indexed": false,
          "internalType": "uint256",
          "name": "newBossHp",
          "type": "uint256"
        },
        {
          "indexed": false,
          "internalType": "uint256",
          "name": "newPlayerHp",
          "type": "uint256"
        }
      ],
      "name": "AttackComplete",
      "type": "event"
    },
    {
      "anonymous": false,
      "inputs": [
        {
          "indexed": false,
          "internalType": "address",
          "name": "sender",
          "type": "address"
        },
        {
          "indexed": false,
          "internalType": "uint256",
          "name": "tokenId",
          "type": "uint256"
        },
        {
          "indexed": false,
          "internalType": "uint256",
          "name": "characterIndex",
          "type": "uint256"
        }
      ],
      "name": "CharacterNFTMinted",
      "type": "event"
    },
    {
      "anonymous": false,
      "inputs": [
        {
          "indexed": true,
          "internalType": "address",
          "name": "previousOwner",
          "type": "address"
        },
        {
          "indexed": true,
          "internalType": "address",
          "name": "newOwner",
          "type": "address"
        }
      ],
      "name": "OwnershipTransferred",
      "type": "event"
    },
    {
      "anonymous": false,
      "inputs": [
        {
          "indexed": false,
          "internalType": "uint256",
          "name": "oldBossHp",
          "type": "uint256"
        },
        {
          "indexed": false,
          "internalType": "uint256",
          "name": "newBossHp",
          "type": "uint256"
        }
      ],
      "name": "RestoreHealth",
      "type": "event"
    },
    {
      "anonymous": false,
      "inputs": [
        {
          "indexed": true,
          "internalType": "address",
          "name": "from",
          "type": "address"
        },
        {
          "indexed": true,
          "internalType": "address",
          "name": "to",
          "type": "address"
        },
        {
          "indexed": true,
          "internalType": "uint256",
          "name": "tokenId",
          "type": "uint256"
        }
      ],
      "name": "Transfer",
      "type": "event"
    },
    {
      "inputs": [
        {
          "internalType": "address",
          "name": "to",
          "type": "address"
        },
        {
          "internalType": "uint256",
          "name": "tokenId",
          "type": "uint256"
        }
      ],
      "name": "approve",
      "outputs": [],
      "stateMutability": "nonpayable",
      "type": "function"
    },
    {
      "inputs": [
        {
          "internalType": "address",
          "name": "owner",
          "type": "address"
        }
      ],
      "name": "balanceOf",
      "outputs": [
        {
          "internalType": "uint256",
          "name": "",
          "type": "uint256"
        }
      ],
      "stateMutability": "view",
      "type": "function",
      "constant": true
    },
    {
      "inputs": [],
      "name": "bigBoss",
      "outputs": [
        {
          "internalType": "string",
          "name": "name",
          "type": "string"
        },
        {
          "internalType": "string",
          "name": "imageURI",
          "type": "string"
        },
        {
          "internalType": "uint256",
          "name": "hp",
          "type": "uint256"
        },
        {
          "internalType": "uint256",
          "name": "maxHp",
          "type": "uint256"
        },
        {
          "internalType": "uint256",
          "name": "attackDamage",
          "type": "uint256"
        }
      ],
      "stateMutability": "view",
      "type": "function",
      "constant": true
    },
    {
      "inputs": [
        {
          "internalType": "uint256",
          "name": "tokenId",
          "type": "uint256"
        }
      ],
      "name": "getApproved",
      "outputs": [
        {
          "internalType": "address",
          "name": "",
          "type": "address"
        }
      ],
      "stateMutability": "view",
      "type": "function",
      "constant": true
    },
    {
      "inputs": [
        {
          "internalType": "address",
          "name": "owner",
          "type": "address"
        },
        {
          "internalType": "address",
          "name": "operator",
          "type": "address"
        }
      ],
      "name": "isApprovedForAll",
      "outputs": [
        {
          "internalType": "bool",
          "name": "",
          "type": "bool"
        }
      ],
      "stateMutability": "view",
      "type": "function",
      "constant": true
    },
    {
      "inputs": [],
      "name": "keepersRegistry",
      "outputs": [
        {
          "internalType": "address",
          "name": "",
          "type": "address"
        }
      ],
      "stateMutability": "view",
      "type": "function",
      "constant": true
    },
    {
      "inputs": [],
      "name": "name",
      "outputs": [
        {
          "internalType": "string",
          "name": "",
          "type": "string"
        }
      ],
      "stateMutability": "view",
      "type": "function",
      "constant": true
    },
    {
      "inputs": [
        {
          "internalType": "uint256",
          "name": "",
          "type": "uint256"
        }
      ],
      "name": "nftHolderAttributes",
      "outputs": [
        {
          "internalType": "uint256",
          "name": "characterIndex",
          "type": "uint256"
        },
        {
          "internalType": "string",
          "name": "name",
          "type": "string"
        },
        {
          "internalType": "string",
          "name": "imageURI",
          "type": "string"
        },
        {
          "internalType": "uint256",
          "name": "hp",
          "type": "uint256"
        },
        {
          "internalType": "uint256",
          "name": "maxHp",
          "type": "uint256"
        },
        {
          "internalType": "uint256",
          "name": "attackDamage",
          "type": "uint256"
        }
      ],
      "stateMutability": "view",
      "type": "function",
      "constant": true
    },
    {
      "inputs": [
        {
          "internalType": "address",
          "name": "",
          "type": "address"
        }
      ],
      "name": "nftHolders",
      "outputs": [
        {
          "internalType": "uint256",
          "name": "",
          "type": "uint256"
        }
      ],
      "stateMutability": "view",
      "type": "function",
      "constant": true
    },
    {
      "inputs": [],
      "name": "owner",
      "outputs": [
        {
          "internalType": "address",
          "name": "",
          "type": "address"
        }
      ],
      "stateMutability": "view",
      "type": "function",
      "constant": true
    },
    {
      "inputs": [
        {
          "internalType": "uint256",
          "name": "tokenId",
          "type": "uint256"
        }
      ],
      "name": "ownerOf",
      "outputs": [
        {
          "internalType": "address",
          "name": "",
          "type": "address"
        }
      ],
      "stateMutability": "view",
      "type": "function",
      "constant": true
    },
    {
      "inputs": [],
      "name": "renounceOwnership",
      "outputs": [],
      "stateMutability": "nonpayable",
      "type": "function"
    },
    {
      "inputs": [
        {
          "internalType": "address",
          "name": "from",
          "type": "address"
        },
        {
          "internalType": "address",
          "name": "to",
          "type": "address"
        },
        {
          "internalType": "uint256",
          "name": "tokenId",
          "type": "uint256"
        }
      ],
      "name": "safeTransferFrom",
      "outputs": [],
      "stateMutability": "nonpayable",
      "type": "function"
    },
    {
      "inputs": [
        {
          "internalType": "address",
          "name": "from",
          "type": "address"
        },
        {
          "internalType": "address",
          "name": "to",
          "type": "address"
        },
        {
          "internalType": "uint256",
          "name": "tokenId",
          "type": "uint256"
        },
        {
          "internalType": "bytes",
          "name": "_data",
          "type": "bytes"
        }
      ],
      "name": "safeTransferFrom",
      "outputs": [],
      "stateMutability": "nonpayable",
      "type": "function"
    },
    {
      "inputs": [
        {
          "internalType": "address",
          "name": "operator",
          "type": "address"
        },
        {
          "internalType": "bool",
          "name": "approved",
          "type": "bool"
        }
      ],
      "name": "setApprovalForAll",
      "outputs": [],
      "stateMutability": "nonpayable",
      "type": "function"
    },
    {
      "inputs": [
        {
          "internalType": "bytes4",
          "name": "interfaceId",
          "type": "bytes4"
        }
      ],
      "name": "supportsInterface",
      "outputs": [
        {
          "internalType": "bool",
          "name": "",
          "type": "bool"
        }
      ],
      "stateMutability": "view",
      "type": "function",
      "constant": true
    },
    {
      "inputs": [],
      "name": "symbol",
      "outputs": [
        {
          "internalType": "string",
          "name": "",
          "type": "string"
        }
      ],
      "stateMutability": "view",
      "type": "function",
      "constant": true
    },
    {
      "inputs": [
        {
          "internalType": "address",
          "name": "from",
          "type": "address"
        },
        {
          "internalType": "address",
          "name": "to",
          "type": "address"
        },
        {
          "internalType": "uint256",
          "name": "tokenId",
          "type": "uint256"
        }
      ],
      "name": "transferFrom",
      "outputs": [],
      "stateMutability": "nonpayable",
      "type": "function"
    },
    {
      "inputs": [
        {
          "internalType": "address",
          "name": "newOwner",
          "type": "address"
        }
      ],
      "name": "transferOwnership",
      "outputs": [],
      "stateMutability": "nonpayable",
      "type": "function"
    },
    {
      "inputs": [
        {
          "internalType": "uint256",
          "name": "_characterIndex",
          "type": "uint256"
        }
      ],
      "name": "mintCharacterNFT",
      "outputs": [],
      "stateMutability": "nonpayable",
      "type": "function"
    },
    {
      "inputs": [
        {
          "internalType": "uint256",
          "name": "_tokenId",
          "type": "uint256"
        }
      ],
      "name": "tokenURI",
      "outputs": [
        {
          "internalType": "string",
          "name": "",
          "type": "string"
        }
      ],
      "stateMutability": "view",
      "type": "function",
      "constant": true
    },
    {
      "inputs": [],
      "name": "attackBoss",
      "outputs": [],
      "stateMutability": "nonpayable",
      "type": "function"
    },
    {
      "inputs": [],
      "name": "checkIfUserHasNFT",
      "outputs": [
        {
          "components": [
            {
              "internalType": "uint256",
              "name": "characterIndex",
              "type": "uint256"
            },
            {
              "internalType": "string",
              "name": "name",
              "type": "string"
            },
            {
              "internalType": "string",
              "name": "imageURI",
              "type": "string"
            },
            {
              "internalType": "uint256",
              "name": "hp",
              "type": "uint256"
            },
            {
              "internalType": "uint256",
              "name": "maxHp",
              "type": "uint256"
            },
            {
              "internalType": "uint256",
              "name": "attackDamage",
              "type": "uint256"
            }
          ],
          "internalType": "struct NFTGAME.CharacterAttributes",
          "name": "",
          "type": "tuple"
        }
      ],
      "stateMutability": "view",
      "type": "function",
      "constant": true
    },
    {
      "inputs": [],
      "name": "getAllDefaultCharacters",
      "outputs": [
        {
          "components": [
            {
              "internalType": "uint256",
              "name": "characterIndex",
              "type": "uint256"
            },
            {
              "internalType": "string",
              "name": "name",
              "type": "string"
            },
            {
              "internalType": "string",
              "name": "imageURI",
              "type": "string"
            },
            {
              "internalType": "uint256",
              "name": "hp",
              "type": "uint256"
            },
            {
              "internalType": "uint256",
              "name": "maxHp",
              "type": "uint256"
            },
            {
              "internalType": "uint256",
              "name": "attackDamage",
              "type": "uint256"
            }
          ],
          "internalType": "struct NFTGAME.CharacterAttributes[]",
          "name": "",
          "type": "tuple[]"
        }
      ],
      "stateMutability": "view",
      "type": "function",
      "constant": true
    },
    {
      "inputs": [],
      "name": "getBigBoss",
      "outputs": [
        {
          "components": [
            {
              "internalType": "string",
              "name": "name",
              "type": "string"
            },
            {
              "internalType": "string",
              "name": "imageURI",
              "type": "string"
            },
            {
              "internalType": "uint256",
              "name": "hp",
              "type": "uint256"
            },
            {
              "internalType": "uint256",
              "name": "maxHp",
              "type": "uint256"
            },
            {
              "internalType": "uint256",
              "name": "attackDamage",
              "type": "uint256"
            }
          ],
          "internalType": "struct NFTGAME.BigBoss",
          "name": "",
          "type": "tuple"
        }
      ],
      "stateMutability": "view",
      "type": "function",
      "constant": true
    },
    {
      "inputs": [],
      "name": "RestoreBossHealth",
      "outputs": [],
      "stateMutability": "nonpayable",
      "type": "function"
    },
    {
      "inputs": [
        {
          "internalType": "bytes",
          "name": "",
          "type": "bytes"
        }
      ],
      "name": "checkUpkeep",
      "outputs": [
        {
          "internalType": "bool",
          "name": "upkeepNeeded",
          "type": "bool"
        },
        {
          "internalType": "bytes",
          "name": "",
          "type": "bytes"
        }
      ],
      "stateMutability": "view",
      "type": "function",
      "constant": true
    },
    {
      "inputs": [
        {
          "internalType": "bytes",
          "name": "",
          "type": "bytes"
        }
      ],
      "name": "performUpkeep",
      "outputs": [],
      "stateMutability": "nonpayable",
      "type": "function"
    }
  ],
  "bytecode": "0x6080604052734cb093f226983713164a62138c3f718a5b595f73601060006101000a81548173ffffffffffffffffffffffffffffffffffffffff021916908373ffffffffffffffffffffffffffffffffffffffff1602179055503480156200006657600080fd5b506040516200546d3803806200546d83398181016040528101906200008c919062000774565b6040518060400160405280600981526020017f41627374726163747300000000000000000000000000000000000000000000008152506040518060400160405280600381526020017f414254000000000000000000000000000000000000000000000000000000000081525081600090805190602001906200011092919062000507565b5080600190805190602001906200012992919062000507565b5050506200014c620001406200042360201b60201c565b6200042b60201b60201c565b6040518060a0016040528085815260200184815260200183815260200183815260200182815250600b60008201518160000190805190602001906200019392919062000507565b506020820151816001019080519060200190620001b292919062000507565b5060408201518160020155606082015181600301556080820151816004015590505060005b8851811015620003fd5760086040518060c001604052808381526020018b84815181106200022e577f4e487b7100000000000000000000000000000000000000000000000000000000600052603260045260246000fd5b602002602001015181526020018a848151811062000275577f4e487b7100000000000000000000000000000000000000000000000000000000600052603260045260246000fd5b60200260200101518152602001898481518110620002bc577f4e487b7100000000000000000000000000000000000000000000000000000000600052603260045260246000fd5b6020026020010151815260200189848151811062000303577f4e487b7100000000000000000000000000000000000000000000000000000000600052603260045260246000fd5b602002602001015181526020018884815181106200034a577f4e487b7100000000000000000000000000000000000000000000000000000000600052603260045260246000fd5b60200260200101518152509080600181540180825580915050600190039060005260206000209060060201600090919091909150600082015181600001556020820151816001019080519060200190620003a692919062000507565b506040820151816002019080519060200190620003c592919062000507565b50606082015181600301556080820151816004015560a082015181600501555050600181620003f5919062000992565b9050620001d7565b50620004156007620004f160201b6200202f1760201c565b505050505050505062000b0c565b600033905090565b6000600660009054906101000a900473ffffffffffffffffffffffffffffffffffffffff16905081600660006101000a81548173ffffffffffffffffffffffffffffffffffffffff021916908373ffffffffffffffffffffffffffffffffffffffff1602179055508173ffffffffffffffffffffffffffffffffffffffff168173ffffffffffffffffffffffffffffffffffffffff167f8be0079c531659141344cd1fd0a4f28419497f9722a3daafe3b4186f6b6457e060405160405180910390a35050565b6001816000016000828254019250508190555050565b828054620005159062000a2f565b90600052602060002090601f01602090048101928262000539576000855562000585565b82601f106200055457805160ff191683800117855562000585565b8280016001018555821562000585579182015b828111156200058457825182559160200191906001019062000567565b5b50905062000594919062000598565b5090565b5b80821115620005b357600081600090555060010162000599565b5090565b6000620005ce620005c88462000901565b620008cd565b9050808382526020820190508260005b85811015620006125781518501620005f7888262000730565b845260208401935060208301925050600181019050620005de565b5050509392505050565b6000620006336200062d8462000930565b620008cd565b905080838252602082019050828560208602820111156200065357600080fd5b60005b858110156200068757816200066c88826200075d565b84526020840193506020830192505060018101905062000656565b5050509392505050565b6000620006a8620006a2846200095f565b620008cd565b905082815260208101848484011115620006c157600080fd5b620006ce848285620009f9565b509392505050565b600082601f830112620006e857600080fd5b8151620006fa848260208601620005b7565b91505092915050565b600082601f8301126200071557600080fd5b8151620007278482602086016200061c565b91505092915050565b600082601f8301126200074257600080fd5b81516200075484826020860162000691565b91505092915050565b6000815190506200076e8162000af2565b92915050565b600080600080600080600080610100898b0312156200079257600080fd5b600089015167ffffffffffffffff811115620007ad57600080fd5b620007bb8b828c01620006d6565b985050602089015167ffffffffffffffff811115620007d957600080fd5b620007e78b828c01620006d6565b975050604089015167ffffffffffffffff8111156200080557600080fd5b620008138b828c0162000703565b965050606089015167ffffffffffffffff8111156200083157600080fd5b6200083f8b828c0162000703565b955050608089015167ffffffffffffffff8111156200085d57600080fd5b6200086b8b828c0162000730565b94505060a089015167ffffffffffffffff8111156200088957600080fd5b620008978b828c0162000730565b93505060c0620008aa8b828c016200075d565b92505060e0620008bd8b828c016200075d565b9150509295985092959890939650565b6000604051905081810181811067ffffffffffffffff82111715620008f757620008f662000ac3565b5b8060405250919050565b600067ffffffffffffffff8211156200091f576200091e62000ac3565b5b602082029050602081019050919050565b600067ffffffffffffffff8211156200094e576200094d62000ac3565b5b602082029050602081019050919050565b600067ffffffffffffffff8211156200097d576200097c62000ac3565b5b601f19601f8301169050602081019050919050565b60006200099f82620009ef565b9150620009ac83620009ef565b9250827fffffffffffffffffffffffffffffffffffffffffffffffffffffffffffffffff03821115620009e457620009e362000a65565b5b828201905092915050565b6000819050919050565b60005b8381101562000a19578082015181840152602081019050620009fc565b8381111562000a29576000848401525b50505050565b6000600282049050600182168062000a4857607f821691505b6020821081141562000a5f5762000a5e62000a94565b5b50919050565b7f4e487b7100000000000000000000000000000000000000000000000000000000600052601160045260246000fd5b7f4e487b7100000000000000000000000000000000000000000000000000000000600052602260045260246000fd5b7f4e487b7100000000000000000000000000000000000000000000000000000000600052604160045260246000fd5b62000afd81620009ef565b811462000b0957600080fd5b50565b6149518062000b1c6000396000f3fe608060405234801561001057600080fd5b50600436106101c45760003560e01c80638da5cb5b116100f9578063b953084e11610097578063d4f24c5b11610071578063d4f24c5b146104ff578063e985e9c514610509578063f2fde38b14610539578063f8b81ef714610555576101c4565b8063b953084e14610493578063c87b56dd146104b1578063c8cf27f4146104e1576101c4565b8063a22cb465116100d3578063a22cb4651461042f578063a9c326791461044b578063b013969e1461046d578063b88d4fde14610477576101c4565b80638da5cb5b146103be57806395d89b41146103dc57806398da4c95146103fa576101c4565b80634585e33b1161016657806370a082311161014057806370a0823114610336578063715018a61461036657806379ebdeb6146103705780637df124a11461038e576101c4565b80634585e33b146102b95780636352211e146102d55780636e04ff0d14610305576101c4565b8063081812fc116101a2578063081812fc14610235578063095ea7b31461026557806323b872dd1461028157806342842e0e1461029d576101c4565b806301ffc9a7146101c95780630665f961146101f957806306fdde0314610217575b600080fd5b6101e360048036038101906101de9190613171565b610571565b6040516101f09190614048565b60405180910390f35b610201610653565b60405161020e9190614356565b60405180910390f35b61021f6107af565b60405161022c9190614093565b60405180910390f35b61024f600480360381019061024a9190613208565b610841565b60405161025c9190613f88565b60405180910390f35b61027f600480360381019061027a9190613135565b6108c6565b005b61029b6004803603810190610296919061302f565b6109de565b005b6102b760048036038101906102b2919061302f565b610a3e565b005b6102d360048036038101906102ce91906131c3565b610a5e565b005b6102ef60048036038101906102ea9190613208565b610b4a565b6040516102fc9190613f88565b60405180910390f35b61031f600480360381019061031a91906131c3565b610bfc565b60405161032d929190614063565b60405180910390f35b610350600480360381019061034b9190612fca565b610c13565b60405161035d919061439a565b60405180910390f35b61036e610ccb565b005b610378610d53565b6040516103859190613f88565b60405180910390f35b6103a860048036038101906103a39190612fca565b610d79565b6040516103b5919061439a565b60405180910390f35b6103c6610d91565b6040516103d39190613f88565b60405180910390f35b6103e4610dbb565b6040516103f19190614093565b60405180910390f35b610414600480360381019061040f9190613208565b610e4d565b604051610426969594939291906143b5565b60405180910390f35b610449600480360381019061044491906130f9565b610f99565b005b61045361111a565b6040516104649594939291906140b5565b60405180910390f35b61047561124e565b005b610491600480360381019061048c919061307e565b611324565b005b61049b611386565b6040516104a89190614026565b60405180910390f35b6104cb60048036038101906104c69190613208565b611531565b6040516104d89190614093565b60405180910390f35b6104e961174c565b6040516104f69190614378565b60405180910390f35b610507611924565b005b610523600480360381019061051e9190612ff3565b611ad2565b6040516105309190614048565b60405180910390f35b610553600480360381019061054e9190612fca565b611b66565b005b61056f600480360381019061056a9190613208565b611c5e565b005b60007f80ac58cd000000000000000000000000000000000000000000000000000000007bffffffffffffffffffffffffffffffffffffffffffffffffffffffff1916827bffffffffffffffffffffffffffffffffffffffffffffffffffffffff1916148061063c57507f5b5e139f000000000000000000000000000000000000000000000000000000007bffffffffffffffffffffffffffffffffffffffffffffffffffffffff1916827bffffffffffffffffffffffffffffffffffffffffffffffffffffffff1916145b8061064c575061064b82612045565b5b9050919050565b61065b612da7565b600b6040518060a001604052908160008201805461067890614706565b80601f01602080910402602001604051908101604052809291908181526020018280546106a490614706565b80156106f15780601f106106c6576101008083540402835291602001916106f1565b820191906000526020600020905b8154815290600101906020018083116106d457829003601f168201915b5050505050815260200160018201805461070a90614706565b80601f016020809104026020016040519081016040528092919081815260200182805461073690614706565b80156107835780601f1061075857610100808354040283529160200191610783565b820191906000526020600020905b81548152906001019060200180831161076657829003601f168201915b505050505081526020016002820154815260200160038201548152602001600482015481525050905090565b6060600080546107be90614706565b80601f01602080910402602001604051908101604052809291908181526020018280546107ea90614706565b80156108375780601f1061080c57610100808354040283529160200191610837565b820191906000526020600020905b81548152906001019060200180831161081a57829003601f168201915b5050505050905090565b600061084c826120af565b61088b576040517f08c379a0000000000000000000000000000000000000000000000000000000008152600401610882906142b6565b60405180910390fd5b6004600083815260200190815260200160002060009054906101000a900473ffffffffffffffffffffffffffffffffffffffff169050919050565b60006108d182610b4a565b90508073ffffffffffffffffffffffffffffffffffffffff168373ffffffffffffffffffffffffffffffffffffffff161415610942576040517f08c379a000000000000000000000000000000000000000000000000000000000815260040161093990614316565b60405180910390fd5b8073ffffffffffffffffffffffffffffffffffffffff1661096161211b565b73ffffffffffffffffffffffffffffffffffffffff161480610990575061098f8161098a61211b565b611ad2565b5b6109cf576040517f08c379a00000000000000000000000000000000000000000000000000000000081526004016109c6906141f6565b60405180910390fd5b6109d98383612123565b505050565b6109ef6109e961211b565b826121dc565b610a2e576040517f08c379a0000000000000000000000000000000000000000000000000000000008152600401610a2590614336565b60405180910390fd5b610a398383836122ba565b505050565b610a5983838360405180602001604052806000815250611324565b505050565b601060009054906101000a900473ffffffffffffffffffffffffffffffffffffffff1673ffffffffffffffffffffffffffffffffffffffff163373ffffffffffffffffffffffffffffffffffffffff1614610aee576040517f08c379a0000000000000000000000000000000000000000000000000000000008152600401610ae590614256565b60405180910390fd5b6000600b600201549050600b60030154600b600201819055507f5c60545d6eea5e2549b3bdfe0ae6ec3e4a4e305d1e05de3dc0ed15ad48443e1f81600b60020154604051610b3d929190614424565b60405180910390a1505050565b6000806002600084815260200190815260200160002060009054906101000a900473ffffffffffffffffffffffffffffffffffffffff169050600073ffffffffffffffffffffffffffffffffffffffff168173ffffffffffffffffffffffffffffffffffffffff161415610bf3576040517f08c379a0000000000000000000000000000000000000000000000000000000008152600401610bea90614236565b60405180910390fd5b80915050919050565b600060606000600b60020154111591509250929050565b60008073ffffffffffffffffffffffffffffffffffffffff168273ffffffffffffffffffffffffffffffffffffffff161415610c84576040517f08c379a0000000000000000000000000000000000000000000000000000000008152600401610c7b90614216565b60405180910390fd5b600360008373ffffffffffffffffffffffffffffffffffffffff1673ffffffffffffffffffffffffffffffffffffffff168152602001908152602001600020549050919050565b610cd361211b565b73ffffffffffffffffffffffffffffffffffffffff16610cf1610d91565b73ffffffffffffffffffffffffffffffffffffffff1614610d47576040517f08c379a0000000000000000000000000000000000000000000000000000000008152600401610d3e906142d6565b60405180910390fd5b610d516000612516565b565b601060009054906101000a900473ffffffffffffffffffffffffffffffffffffffff1681565b600a6020528060005260406000206000915090505481565b6000600660009054906101000a900473ffffffffffffffffffffffffffffffffffffffff16905090565b606060018054610dca90614706565b80601f0160208091040260200160405190810160405280929190818152602001828054610df690614706565b8015610e435780601f10610e1857610100808354040283529160200191610e43565b820191906000526020600020905b815481529060010190602001808311610e2657829003601f168201915b5050505050905090565b6009602052806000526040600020600091509050806000015490806001018054610e7690614706565b80601f0160208091040260200160405190810160405280929190818152602001828054610ea290614706565b8015610eef5780601f10610ec457610100808354040283529160200191610eef565b820191906000526020600020905b815481529060010190602001808311610ed257829003601f168201915b505050505090806002018054610f0490614706565b80601f0160208091040260200160405190810160405280929190818152602001828054610f3090614706565b8015610f7d5780601f10610f5257610100808354040283529160200191610f7d565b820191906000526020600020905b815481529060010190602001808311610f6057829003601f168201915b5050505050908060030154908060040154908060050154905086565b610fa161211b565b73ffffffffffffffffffffffffffffffffffffffff168273ffffffffffffffffffffffffffffffffffffffff16141561100f576040517f08c379a0000000000000000000000000000000000000000000000000000000008152600401611006906141b6565b60405180910390fd5b806005600061101c61211b565b73ffffffffffffffffffffffffffffffffffffffff1673ffffffffffffffffffffffffffffffffffffffff16815260200190815260200160002060008473ffffffffffffffffffffffffffffffffffffffff1673ffffffffffffffffffffffffffffffffffffffff16815260200190815260200160002060006101000a81548160ff0219169083151502179055508173ffffffffffffffffffffffffffffffffffffffff166110c961211b565b73ffffffffffffffffffffffffffffffffffffffff167f17307eab39ab6107e8899845ad3d59bd9653f200f220920489ca2b5937696c318360405161110e9190614048565b60405180910390a35050565b600b80600001805461112b90614706565b80601f016020809104026020016040519081016040528092919081815260200182805461115790614706565b80156111a45780601f10611179576101008083540402835291602001916111a4565b820191906000526020600020905b81548152906001019060200180831161118757829003601f168201915b5050505050908060010180546111b990614706565b80601f01602080910402602001604051908101604052809291908181526020018280546111e590614706565b80156112325780601f1061120757610100808354040283529160200191611232565b820191906000526020600020905b81548152906001019060200180831161121557829003601f168201915b5050505050908060020154908060030154908060040154905085565b61125661211b565b73ffffffffffffffffffffffffffffffffffffffff16611274610d91565b73ffffffffffffffffffffffffffffffffffffffff16146112ca576040517f08c379a00000000000000000000000000000000000000000000000000000000081526004016112c1906142d6565b60405180910390fd5b6000600b600201549050600b60030154600b600201819055507f5c60545d6eea5e2549b3bdfe0ae6ec3e4a4e305d1e05de3dc0ed15ad48443e1f81600b60020154604051611319929190614424565b60405180910390a150565b61133561132f61211b565b836121dc565b611374576040517f08c379a000000000000000000000000000000000000000000000000000000000815260040161136b90614336565b60405180910390fd5b611380848484846125dc565b50505050565b60606008805480602002602001604051908101604052809291908181526020016000905b8282101561152857838290600052602060002090600602016040518060c0016040529081600082015481526020016001820180546113e790614706565b80601f016020809104026020016040519081016040528092919081815260200182805461141390614706565b80156114605780601f1061143557610100808354040283529160200191611460565b820191906000526020600020905b81548152906001019060200180831161144357829003601f168201915b5050505050815260200160028201805461147990614706565b80601f01602080910402602001604051908101604052809291908181526020018280546114a590614706565b80156114f25780601f106114c7576101008083540402835291602001916114f2565b820191906000526020600020905b8154815290600101906020018083116114d557829003601f168201915b505050505081526020016003820154815260200160048201548152602001600582015481525050815260200190600101906113aa565b50505050905090565b60606000600960008481526020019081526020016000206040518060c00160405290816000820154815260200160018201805461156d90614706565b80601f016020809104026020016040519081016040528092919081815260200182805461159990614706565b80156115e65780601f106115bb576101008083540402835291602001916115e6565b820191906000526020600020905b8154815290600101906020018083116115c957829003601f168201915b505050505081526020016002820180546115ff90614706565b80601f016020809104026020016040519081016040528092919081815260200182805461162b90614706565b80156116785780601f1061164d57610100808354040283529160200191611678565b820191906000526020600020905b81548152906001019060200180831161165b57829003601f168201915b505050505081526020016003820154815260200160048201548152602001600582015481525050905060006116b08260600151612638565b905060006116c18360800151612638565b905060006116d28460a00151612638565b9050600061171885602001516116e789612638565b876040015187878760405160200161170496959493929190613ec1565b6040516020818303038152906040526127e5565b905060008160405160200161172d9190613f66565b6040516020818303038152906040529050809650505050505050919050565b611754612dd6565b6000600a60003373ffffffffffffffffffffffffffffffffffffffff1673ffffffffffffffffffffffffffffffffffffffff168152602001908152602001600020549050600081111561191357600960008281526020019081526020016000206040518060c0016040529081600082015481526020016001820180546117d990614706565b80601f016020809104026020016040519081016040528092919081815260200182805461180590614706565b80156118525780601f1061182757610100808354040283529160200191611852565b820191906000526020600020905b81548152906001019060200180831161183557829003601f168201915b5050505050815260200160028201805461186b90614706565b80601f016020809104026020016040519081016040528092919081815260200182805461189790614706565b80156118e45780601f106118b9576101008083540402835291602001916118e4565b820191906000526020600020905b8154815290600101906020018083116118c757829003601f168201915b505050505081526020016003820154815260200160048201548152602001600582015481525050915050611921565b61191b612dd6565b80925050505b90565b6000600a60003373ffffffffffffffffffffffffffffffffffffffff1673ffffffffffffffffffffffffffffffffffffffff168152602001908152602001600020549050600060096000838152602001908152602001600020905060008160030154116119c6576040517f08c379a00000000000000000000000000000000000000000000000000000000081526004016119bd90614276565b60405180910390fd5b6000600b6002015411611a0e576040517f08c379a0000000000000000000000000000000000000000000000000000000008152600401611a0590614156565b60405180910390fd5b8060050154600b600201541015611a2f576000600b60020181905550611a4e565b8060050154600b60020154611a44919061461c565b600b600201819055505b600b6004015481600301541015611a6e5760008160030181905550611a8c565b600b600401548160030154611a83919061461c565b81600301819055505b7f838ab28464562786a6c4ab2311964b82fa60bd9b14aa7e856af1f3f18d41a414600b600201548260030154604051611ac6929190614424565b60405180910390a15050565b6000600560008473ffffffffffffffffffffffffffffffffffffffff1673ffffffffffffffffffffffffffffffffffffffff16815260200190815260200160002060008373ffffffffffffffffffffffffffffffffffffffff1673ffffffffffffffffffffffffffffffffffffffff16815260200190815260200160002060009054906101000a900460ff16905092915050565b611b6e61211b565b73ffffffffffffffffffffffffffffffffffffffff16611b8c610d91565b73ffffffffffffffffffffffffffffffffffffffff1614611be2576040517f08c379a0000000000000000000000000000000000000000000000000000000008152600401611bd9906142d6565b60405180910390fd5b600073ffffffffffffffffffffffffffffffffffffffff168173ffffffffffffffffffffffffffffffffffffffff161415611c52576040517f08c379a0000000000000000000000000000000000000000000000000000000008152600401611c4990614136565b60405180910390fd5b611c5b81612516565b50565b6000611c6a60076129a3565b9050611c7633826129b1565b6040518060c0016040528083815260200160088481548110611cc1577f4e487b7100000000000000000000000000000000000000000000000000000000600052603260045260246000fd5b90600052602060002090600602016001018054611cdd90614706565b80601f0160208091040260200160405190810160405280929190818152602001828054611d0990614706565b8015611d565780601f10611d2b57610100808354040283529160200191611d56565b820191906000526020600020905b815481529060010190602001808311611d3957829003601f168201915b5050505050815260200160088481548110611d9a577f4e487b7100000000000000000000000000000000000000000000000000000000600052603260045260246000fd5b90600052602060002090600602016002018054611db690614706565b80601f0160208091040260200160405190810160405280929190818152602001828054611de290614706565b8015611e2f5780601f10611e0457610100808354040283529160200191611e2f565b820191906000526020600020905b815481529060010190602001808311611e1257829003601f168201915b5050505050815260200160088481548110611e73577f4e487b7100000000000000000000000000000000000000000000000000000000600052603260045260246000fd5b906000526020600020906006020160030154815260200160088481548110611ec4577f4e487b7100000000000000000000000000000000000000000000000000000000600052603260045260246000fd5b906000526020600020906006020160030154815260200160088481548110611f15577f4e487b7100000000000000000000000000000000000000000000000000000000600052603260045260246000fd5b90600052602060002090600602016005015481525060096000838152602001908152602001600020600082015181600001556020820151816001019080519060200190611f63929190612e0c565b506040820151816002019080519060200190611f80929190612e0c565b50606082015181600301556080820151816004015560a0820151816005015590505080600a60003373ffffffffffffffffffffffffffffffffffffffff1673ffffffffffffffffffffffffffffffffffffffff16815260200190815260200160002081905550611ff0600761202f565b7f4bc303fd457a97b4691b9af582ce71868a3d258638c8d4f8c60988a0f0bfb8cd33828460405161202393929190613fef565b60405180910390a15050565b6001816000016000828254019250508190555050565b60007f01ffc9a7000000000000000000000000000000000000000000000000000000007bffffffffffffffffffffffffffffffffffffffffffffffffffffffff1916827bffffffffffffffffffffffffffffffffffffffffffffffffffffffff1916149050919050565b60008073ffffffffffffffffffffffffffffffffffffffff166002600084815260200190815260200160002060009054906101000a900473ffffffffffffffffffffffffffffffffffffffff1673ffffffffffffffffffffffffffffffffffffffff1614159050919050565b600033905090565b816004600083815260200190815260200160002060006101000a81548173ffffffffffffffffffffffffffffffffffffffff021916908373ffffffffffffffffffffffffffffffffffffffff160217905550808273ffffffffffffffffffffffffffffffffffffffff1661219683610b4a565b73ffffffffffffffffffffffffffffffffffffffff167f8c5be1e5ebec7d5bd14f71427d1e84f3dd0314c0f7b2291e5b200ac8c7c3b92560405160405180910390a45050565b60006121e7826120af565b612226576040517f08c379a000000000000000000000000000000000000000000000000000000000815260040161221d906141d6565b60405180910390fd5b600061223183610b4a565b90508073ffffffffffffffffffffffffffffffffffffffff168473ffffffffffffffffffffffffffffffffffffffff1614806122a057508373ffffffffffffffffffffffffffffffffffffffff1661228884610841565b73ffffffffffffffffffffffffffffffffffffffff16145b806122b157506122b08185611ad2565b5b91505092915050565b8273ffffffffffffffffffffffffffffffffffffffff166122da82610b4a565b73ffffffffffffffffffffffffffffffffffffffff1614612330576040517f08c379a0000000000000000000000000000000000000000000000000000000008152600401612327906142f6565b60405180910390fd5b600073ffffffffffffffffffffffffffffffffffffffff168273ffffffffffffffffffffffffffffffffffffffff1614156123a0576040517f08c379a000000000000000000000000000000000000000000000000000000000815260040161239790614196565b60405180910390fd5b6123ab8383836129cf565b6123b6600082612123565b6001600360008573ffffffffffffffffffffffffffffffffffffffff1673ffffffffffffffffffffffffffffffffffffffff1681526020019081526020016000206000828254612406919061461c565b925050819055506001600360008473ffffffffffffffffffffffffffffffffffffffff1673ffffffffffffffffffffffffffffffffffffffff168152602001908152602001600020600082825461245d919061453b565b92505081905550816002600083815260200190815260200160002060006101000a81548173ffffffffffffffffffffffffffffffffffffffff021916908373ffffffffffffffffffffffffffffffffffffffff160217905550808273ffffffffffffffffffffffffffffffffffffffff168473ffffffffffffffffffffffffffffffffffffffff167fddf252ad1be2c89b69c2b068fc378daa952ba7f163c4a11628f55a4df523b3ef60405160405180910390a4505050565b6000600660009054906101000a900473ffffffffffffffffffffffffffffffffffffffff16905081600660006101000a81548173ffffffffffffffffffffffffffffffffffffffff021916908373ffffffffffffffffffffffffffffffffffffffff1602179055508173ffffffffffffffffffffffffffffffffffffffff168173ffffffffffffffffffffffffffffffffffffffff167f8be0079c531659141344cd1fd0a4f28419497f9722a3daafe3b4186f6b6457e060405160405180910390a35050565b6125e78484846122ba565b6125f3848484846129d4565b612632576040517f08c379a000000000000000000000000000000000000000000000000000000000815260040161262990614116565b60405180910390fd5b50505050565b60606000821415612680576040518060400160405280600181526020017f300000000000000000000000000000000000000000000000000000000000000081525090506127e0565b600082905060005b600082146126b257808061269b90614738565b915050600a826126ab9190614591565b9150612688565b60008167ffffffffffffffff8111156126f4577f4e487b7100000000000000000000000000000000000000000000000000000000600052604160045260246000fd5b6040519080825280601f01601f1916602001820160405280156127265781602001600182028036833780820191505090505b5090505b600085146127d95760018261273f919061461c565b9150600a8561274e9190614781565b603061275a919061453b565b60f81b818381518110612796577f4e487b7100000000000000000000000000000000000000000000000000000000600052603260045260246000fd5b60200101907effffffffffffffffffffffffffffffffffffffffffffffffffffffffffffff1916908160001a905350600a856127d29190614591565b945061272a565b8093505050505b919050565b6060600082519050600081141561280e576040518060200160405280600081525091505061299e565b6000600360028361281f919061453b565b6128299190614591565b600461283591906145c2565b90506000602082612846919061453b565b67ffffffffffffffff811115612885577f4e487b7100000000000000000000000000000000000000000000000000000000600052604160045260246000fd5b6040519080825280601f01601f1916602001820160405280156128b75781602001600182028036833780820191505090505b50905060006040518060600160405280604081526020016148dc604091399050600181016020830160005b8681101561295b5760038101905062ffffff818a015116603f8160121c168401518060081b905060ff603f83600c1c1686015116810190508060081b905060ff603f8360061c1686015116810190508060081b905060ff603f831686015116810190508060e01b905080845260048401935050506128e2565b506003860660018114612975576002811461298557612990565b613d3d60f01b6002830352612990565b603d60f81b60018303525b508484525050819450505050505b919050565b600081600001549050919050565b6129cb828260405180602001604052806000815250612b6b565b5050565b505050565b60006129f58473ffffffffffffffffffffffffffffffffffffffff16612bc6565b15612b5e578373ffffffffffffffffffffffffffffffffffffffff1663150b7a02612a1e61211b565b8786866040518563ffffffff1660e01b8152600401612a409493929190613fa3565b602060405180830381600087803b158015612a5a57600080fd5b505af1925050508015612a8b57506040513d601f19601f82011682018060405250810190612a88919061319a565b60015b612b0e573d8060008114612abb576040519150601f19603f3d011682016040523d82523d6000602084013e612ac0565b606091505b50600081511415612b06576040517f08c379a0000000000000000000000000000000000000000000000000000000008152600401612afd90614116565b60405180910390fd5b805181602001fd5b63150b7a0260e01b7bffffffffffffffffffffffffffffffffffffffffffffffffffffffff1916817bffffffffffffffffffffffffffffffffffffffffffffffffffffffff191614915050612b63565b600190505b949350505050565b612b758383612bd9565b612b8260008484846129d4565b612bc1576040517f08c379a0000000000000000000000000000000000000000000000000000000008152600401612bb890614116565b60405180910390fd5b505050565b600080823b905060008111915050919050565b600073ffffffffffffffffffffffffffffffffffffffff168273ffffffffffffffffffffffffffffffffffffffff161415612c49576040517f08c379a0000000000000000000000000000000000000000000000000000000008152600401612c4090614296565b60405180910390fd5b612c52816120af565b15612c92576040517f08c379a0000000000000000000000000000000000000000000000000000000008152600401612c8990614176565b60405180910390fd5b612c9e600083836129cf565b6001600360008473ffffffffffffffffffffffffffffffffffffffff1673ffffffffffffffffffffffffffffffffffffffff1681526020019081526020016000206000828254612cee919061453b565b92505081905550816002600083815260200190815260200160002060006101000a81548173ffffffffffffffffffffffffffffffffffffffff021916908373ffffffffffffffffffffffffffffffffffffffff160217905550808273ffffffffffffffffffffffffffffffffffffffff16600073ffffffffffffffffffffffffffffffffffffffff167fddf252ad1be2c89b69c2b068fc378daa952ba7f163c4a11628f55a4df523b3ef60405160405180910390a45050565b6040518060a0016040528060608152602001606081526020016000815260200160008152602001600081525090565b6040518060c001604052806000815260200160608152602001606081526020016000815260200160008152602001600081525090565b828054612e1890614706565b90600052602060002090601f016020900481019282612e3a5760008555612e81565b82601f10612e5357805160ff1916838001178555612e81565b82800160010185558215612e81579182015b82811115612e80578251825591602001919060010190612e65565b5b509050612e8e9190612e92565b5090565b5b80821115612eab576000816000905550600101612e93565b5090565b6000612ec2612ebd8461447e565b61444d565b905082815260208101848484011115612eda57600080fd5b612ee58482856146c4565b509392505050565b600081359050612efc8161487f565b92915050565b600081359050612f1181614896565b92915050565b600081359050612f26816148ad565b92915050565b600081519050612f3b816148ad565b92915050565b60008083601f840112612f5357600080fd5b8235905067ffffffffffffffff811115612f6c57600080fd5b602083019150836001820283011115612f8457600080fd5b9250929050565b600082601f830112612f9c57600080fd5b8135612fac848260208601612eaf565b91505092915050565b600081359050612fc4816148c4565b92915050565b600060208284031215612fdc57600080fd5b6000612fea84828501612eed565b91505092915050565b6000806040838503121561300657600080fd5b600061301485828601612eed565b925050602061302585828601612eed565b9150509250929050565b60008060006060848603121561304457600080fd5b600061305286828701612eed565b935050602061306386828701612eed565b925050604061307486828701612fb5565b9150509250925092565b6000806000806080858703121561309457600080fd5b60006130a287828801612eed565b94505060206130b387828801612eed565b93505060406130c487828801612fb5565b925050606085013567ffffffffffffffff8111156130e157600080fd5b6130ed87828801612f8b565b91505092959194509250565b6000806040838503121561310c57600080fd5b600061311a85828601612eed565b925050602061312b85828601612f02565b9150509250929050565b6000806040838503121561314857600080fd5b600061315685828601612eed565b925050602061316785828601612fb5565b9150509250929050565b60006020828403121561318357600080fd5b600061319184828501612f17565b91505092915050565b6000602082840312156131ac57600080fd5b60006131ba84828501612f2c565b91505092915050565b600080602083850312156131d657600080fd5b600083013567ffffffffffffffff8111156131f057600080fd5b6131fc85828601612f41565b92509250509250929050565b60006020828403121561321a57600080fd5b600061322884828501612fb5565b91505092915050565b600061323d8383613d83565b905092915050565b61324e81614650565b82525050565b600061325f826144be565b61326981856144ec565b93508360208202850161327b856144ae565b8060005b858110156132b757848403895281516132988582613231565b94506132a3836144df565b925060208a0199505060018101905061327f565b50829750879550505050505092915050565b6132d281614662565b82525050565b60006132e3826144c9565b6132ed81856144fd565b93506132fd8185602086016146d3565b6133068161486e565b840191505092915050565b600061331c826144d4565b613326818561450e565b93506133368185602086016146d3565b61333f8161486e565b840191505092915050565b6000613355826144d4565b61335f818561451f565b935061336f8185602086016146d3565b6133788161486e565b840191505092915050565b600061338e826144d4565b6133988185614530565b93506133a88185602086016146d3565b80840191505092915050565b60006133c1600b83614530565b91507f202d2d204e465420233a200000000000000000000000000000000000000000006000830152600b82019050919050565b600061340160328361451f565b91507f4552433732313a207472616e7366657220746f206e6f6e20455243373231526560008301527f63656976657220696d706c656d656e74657200000000000000000000000000006020830152604082019050919050565b600061346760268361451f565b91507f4f776e61626c653a206e6577206f776e657220697320746865207a65726f206160008301527f64647265737300000000000000000000000000000000000000000000000000006020830152604082019050919050565b60006134cd60288361451f565b91507f4572726f723a20626f7373206d757374206861766520485020746f206174746160008301527f636b20626f73732e0000000000000000000000000000000000000000000000006020830152604082019050919050565b6000613533601c8361451f565b91507f4552433732313a20746f6b656e20616c7265616479206d696e746564000000006000830152602082019050919050565b6000613573600e83614530565b91507f2c20226d61785f76616c7565223a0000000000000000000000000000000000006000830152600e82019050919050565b60006135b360248361451f565b91507f4552433732313a207472616e7366657220746f20746865207a65726f2061646460008301527f72657373000000000000000000000000000000000000000000000000000000006020830152604082019050919050565b600061361960198361451f565b91507f4552433732313a20617070726f766520746f2063616c6c6572000000000000006000830152602082019050919050565b6000613659602c8361451f565b91507f4552433732313a206f70657261746f7220717565727920666f72206e6f6e657860008301527f697374656e7420746f6b656e00000000000000000000000000000000000000006020830152604082019050919050565b60006136bf60388361451f565b91507f4552433732313a20617070726f76652063616c6c6572206973206e6f74206f7760008301527f6e6572206e6f7220617070726f76656420666f7220616c6c00000000000000006020830152604082019050919050565b6000613725602a8361451f565b91507f4552433732313a2062616c616e636520717565727920666f7220746865207a6560008301527f726f2061646472657373000000000000000000000000000000000000000000006020830152604082019050919050565b600061378b60298361451f565b91507f4552433732313a206f776e657220717565727920666f72206e6f6e657869737460008301527f656e7420746f6b656e00000000000000000000000000000000000000000000006020830152604082019050919050565b60006137f160278361451f565b91507f4f776e61626c653a2063616c6c6572206973206e6f74206b656570657273207260008301527f65676973747279000000000000000000000000000000000000000000000000006020830152604082019050919050565b6000613857602d8361451f565b91507f4572726f723a20636861726163746572206d757374206861766520485020746f60008301527f2061747461636b20626f73732e000000000000000000000000000000000000006020830152604082019050919050565b60006138bd600483614530565b91507f7d205d7d000000000000000000000000000000000000000000000000000000006000830152600482019050919050565b60006138fd60208361451f565b91507f4552433732313a206d696e7420746f20746865207a65726f20616464726573736000830152602082019050919050565b600061393d602c8361451f565b91507f4552433732313a20617070726f76656420717565727920666f72206e6f6e657860008301527f697374656e7420746f6b656e00000000000000000000000000000000000000006020830152604082019050919050565b60006139a360208361451f565b91507f4f776e61626c653a2063616c6c6572206973206e6f7420746865206f776e65726000830152602082019050919050565b60006139e3606283614530565b91507f222c20226465736372697074696f6e223a20225468697320697320616e204e4660008301527f542074686174206c6574732070656f706c6520706c617920696e20746865206760208301527f616d652041627374726163742061747461636b7321222c2022696d616765223a60408301527f20220000000000000000000000000000000000000000000000000000000000006060830152606282019050919050565b6000613a9560298361451f565b91507f4552433732313a207472616e73666572206f6620746f6b656e2074686174206960008301527f73206e6f74206f776e00000000000000000000000000000000000000000000006020830152604082019050919050565b6000613afb600a83614530565b91507f7b226e616d65223a2022000000000000000000000000000000000000000000006000830152600a82019050919050565b6000613b3b60218361451f565b91507f4552433732313a20617070726f76616c20746f2063757272656e74206f776e6560008301527f72000000000000000000000000000000000000000000000000000000000000006020830152604082019050919050565b6000613ba1601d83614530565b91507f646174613a6170706c69636174696f6e2f6a736f6e3b6261736536342c0000006000830152601d82019050919050565b6000613be160318361451f565b91507f4552433732313a207472616e736665722063616c6c6572206973206e6f74206f60008301527f776e6572206e6f7220617070726f7665640000000000000000000000000000006020830152604082019050919050565b6000613c47603d83614530565b91507f222c202261747472696275746573223a205b207b202274726169745f7479706560008301527f223a20224865616c746820506f696e7473222c202276616c7565223a200000006020830152603d82019050919050565b6000613cad602d83614530565b91507f7d2c207b202274726169745f74797065223a202241747461636b2044616d616760008301527f65222c202276616c7565223a20000000000000000000000000000000000000006020830152602d82019050919050565b600060a0830160008301518482036000860152613d238282613311565b91505060208301518482036020860152613d3d8282613311565b9150506040830151613d526040860182613ea3565b506060830151613d656060860182613ea3565b506080830151613d786080860182613ea3565b508091505092915050565b600060c083016000830151613d9b6000860182613ea3565b5060208301518482036020860152613db38282613311565b91505060408301518482036040860152613dcd8282613311565b9150506060830151613de26060860182613ea3565b506080830151613df56080860182613ea3565b5060a0830151613e0860a0860182613ea3565b508091505092915050565b600060c083016000830151613e2b6000860182613ea3565b5060208301518482036020860152613e438282613311565b91505060408301518482036040860152613e5d8282613311565b9150506060830151613e726060860182613ea3565b506080830151613e856080860182613ea3565b5060a0830151613e9860a0860182613ea3565b508091505092915050565b613eac816146ba565b82525050565b613ebb816146ba565b82525050565b6000613ecc82613aee565b9150613ed88289613383565b9150613ee3826133b4565b9150613eef8288613383565b9150613efa826139d6565b9150613f068287613383565b9150613f1182613c3a565b9150613f1d8286613383565b9150613f2882613566565b9150613f348285613383565b9150613f3f82613ca0565b9150613f4b8284613383565b9150613f56826138b0565b9150819050979650505050505050565b6000613f7182613b94565b9150613f7d8284613383565b915081905092915050565b6000602082019050613f9d6000830184613245565b92915050565b6000608082019050613fb86000830187613245565b613fc56020830186613245565b613fd26040830185613eb2565b8181036060830152613fe481846132d8565b905095945050505050565b60006060820190506140046000830186613245565b6140116020830185613eb2565b61401e6040830184613eb2565b949350505050565b600060208201905081810360008301526140408184613254565b905092915050565b600060208201905061405d60008301846132c9565b92915050565b600060408201905061407860008301856132c9565b818103602083015261408a81846132d8565b90509392505050565b600060208201905081810360008301526140ad818461334a565b905092915050565b600060a08201905081810360008301526140cf818861334a565b905081810360208301526140e3818761334a565b90506140f26040830186613eb2565b6140ff6060830185613eb2565b61410c6080830184613eb2565b9695505050505050565b6000602082019050818103600083015261412f816133f4565b9050919050565b6000602082019050818103600083015261414f8161345a565b9050919050565b6000602082019050818103600083015261416f816134c0565b9050919050565b6000602082019050818103600083015261418f81613526565b9050919050565b600060208201905081810360008301526141af816135a6565b9050919050565b600060208201905081810360008301526141cf8161360c565b9050919050565b600060208201905081810360008301526141ef8161364c565b9050919050565b6000602082019050818103600083015261420f816136b2565b9050919050565b6000602082019050818103600083015261422f81613718565b9050919050565b6000602082019050818103600083015261424f8161377e565b9050919050565b6000602082019050818103600083015261426f816137e4565b9050919050565b6000602082019050818103600083015261428f8161384a565b9050919050565b600060208201905081810360008301526142af816138f0565b9050919050565b600060208201905081810360008301526142cf81613930565b9050919050565b600060208201905081810360008301526142ef81613996565b9050919050565b6000602082019050818103600083015261430f81613a88565b9050919050565b6000602082019050818103600083015261432f81613b2e565b9050919050565b6000602082019050818103600083015261434f81613bd4565b9050919050565b600060208201905081810360008301526143708184613d06565b905092915050565b600060208201905081810360008301526143928184613e13565b905092915050565b60006020820190506143af6000830184613eb2565b92915050565b600060c0820190506143ca6000830189613eb2565b81810360208301526143dc818861334a565b905081810360408301526143f0818761334a565b90506143ff6060830186613eb2565b61440c6080830185613eb2565b61441960a0830184613eb2565b979650505050505050565b60006040820190506144396000830185613eb2565b6144466020830184613eb2565b9392505050565b6000604051905081810181811067ffffffffffffffff821117156144745761447361483f565b5b8060405250919050565b600067ffffffffffffffff8211156144995761449861483f565b5b601f19601f8301169050602081019050919050565b6000819050602082019050919050565b600081519050919050565b600081519050919050565b600081519050919050565b6000602082019050919050565b600082825260208201905092915050565b600082825260208201905092915050565b600082825260208201905092915050565b600082825260208201905092915050565b600081905092915050565b6000614546826146ba565b9150614551836146ba565b9250827fffffffffffffffffffffffffffffffffffffffffffffffffffffffffffffffff03821115614586576145856147b2565b5b828201905092915050565b600061459c826146ba565b91506145a7836146ba565b9250826145b7576145b66147e1565b5b828204905092915050565b60006145cd826146ba565b91506145d8836146ba565b9250817fffffffffffffffffffffffffffffffffffffffffffffffffffffffffffffffff0483118215151615614611576146106147b2565b5b828202905092915050565b6000614627826146ba565b9150614632836146ba565b925082821015614645576146446147b2565b5b828203905092915050565b600061465b8261469a565b9050919050565b60008115159050919050565b60007fffffffff0000000000000000000000000000000000000000000000000000000082169050919050565b600073ffffffffffffffffffffffffffffffffffffffff82169050919050565b6000819050919050565b82818337600083830152505050565b60005b838110156146f15780820151818401526020810190506146d6565b83811115614700576000848401525b50505050565b6000600282049050600182168061471e57607f821691505b6020821081141561473257614731614810565b5b50919050565b6000614743826146ba565b91507fffffffffffffffffffffffffffffffffffffffffffffffffffffffffffffffff821415614776576147756147b2565b5b600182019050919050565b600061478c826146ba565b9150614797836146ba565b9250826147a7576147a66147e1565b5b828206905092915050565b7f4e487b7100000000000000000000000000000000000000000000000000000000600052601160045260246000fd5b7f4e487b7100000000000000000000000000000000000000000000000000000000600052601260045260246000fd5b7f4e487b7100000000000000000000000000000000000000000000000000000000600052602260045260246000fd5b7f4e487b7100000000000000000000000000000000000000000000000000000000600052604160045260246000fd5b6000601f19601f8301169050919050565b61488881614650565b811461489357600080fd5b50565b61489f81614662565b81146148aa57600080fd5b50565b6148b68161466e565b81146148c157600080fd5b50565b6148cd816146ba565b81146148d857600080fd5b5056fe4142434445464748494a4b4c4d4e4f505152535455565758595a6162636465666768696a6b6c6d6e6f707172737475767778797a303132333435363738392b2fa264697066735822122090e08eaee749803a470f28fb1940f804df51ac9fbfbdcb20f7326449ab6784ac64736f6c63430008000033",
  "immutableReferences": {},
  "source": "// SPDX-License-Identifier: MIT\n\npragma solidity 0.8.0;\n/// [MIT License]\n/// @title NFTGAME\n/// @notice smart contract for a simple NFT game\n\n/// @notice inhert NFT (ERC721) contract from openzeppelin.\nimport \"@openzeppelin/contracts/token/ERC721/ERC721.sol\";\nimport \"@openzeppelin/contracts/access/Ownable.sol\";\n\n/// @notice Helper functions OpenZeppelin provides.\nimport \"@openzeppelin/contracts/utils/Counters.sol\";\nimport \"@openzeppelin/contracts/utils/Strings.sol\";\n\n/// @notice Helper function  to encode in Base64\nimport \"./libraries/Base64.sol\";\n\n/// @notice using chainlink keepers\nimport \"@chainlink/contracts/src/v0.8/interfaces/KeeperCompatibleInterface.sol\";\n\n/// @notice Abstract Wars NFTGAME contract inherits from ERC721, which is the standard NFT contract!\ncontract NFTGAME is ERC721, Ownable, KeeperCompatibleInterface {\n    /**\n     * @notice hold all character's attributes in a struct.\n     * @param characterIndex The index of the character\n     * @param name  The name of the character\n     * @param imageURI The image of the character\n     * @param hp The current health points of the character\n     * @param maxHp The maximum health points of the character\n     * @param attackDamage The attack Damaga of the character\n     */\n    struct CharacterAttributes {\n        uint256 characterIndex;\n        string name;\n        string imageURI;\n        uint256 hp;\n        uint256 maxHp;\n        uint256 attackDamage;\n    }\n\n    /**\n     * @dev The tokenId is the NFTs unique identifier, it's just a number that goes\n                0, 1, 2, 3, etc.\n     */\n    using Counters for Counters.Counter;\n    Counters.Counter private _tokenIds;\n\n    /**\n     * @dev An array that helps hold the default data for the charactes \n            this will be helpful when minting new characters in order to \n            know thier attributes \n     */\n\n    CharacterAttributes[] defaultCharacters;\n\n    /// @notice  create a mapping from the nft's tokenId => that NFTs attributes.\n    mapping(uint256 => CharacterAttributes) public nftHolderAttributes;\n\n    /**\n     * @notice A mapping from an address => the NFTs tokenId. provides a simple \n               way to store the owner of the NFT and reference it later\n     */\n    mapping(address => uint256) public nftHolders;\n\n    /**\n     * @notice hold all boss's attributes in a struct.\n     * @param name  The name of the boss\n     * @param imageURI The image of the boss\n     * @param hp The current health points of the boss\n     * @param maxHp The maximum health points of the boss\n     * @param attackDamage The attack Damaga of the boss\n     */\n    struct BigBoss {\n        string name;\n        string imageURI;\n        uint256 hp;\n        uint256 maxHp;\n        uint256 attackDamage;\n    }\n\n    BigBoss public bigBoss;\n\n    /// @notice keepers Registry address\n\n    address public keepersRegistry = 0x4Cb093f226983713164A62138C3F718A5b595F73;\n\n    /// @notice only keepers modifer .\n    modifier onlyKeepers() {\n        require(\n            msg.sender == keepersRegistry,\n            \"Ownable: caller is not keepers registry\"\n        );\n        _;\n    }\n\n    /**\n     * @notice an event for minted NFTS.\n     * @param sender  the NFT owner\n     * @param tokenId the NFT Id\n     * @param characterIndex index of the minted character .\n     */\n\n    event CharacterNFTMinted(\n        address sender,\n        uint256 tokenId,\n        uint256 characterIndex\n    );\n\n    /// @notice an event that fires after a player attack the boss\n    event AttackComplete(uint256 newBossHp, uint256 newPlayerHp);\n\n    /// @notice an event that fires after a owner restore Boss Health\n    event RestoreHealth(uint256 oldBossHp, uint256 newBossHp);\n\n    /**\n     * @notice this is a constructor that contains all characters/boss attr.\n     * @dev characters attr. are an array, because we have many of them\n            but boss isnt as there is only a single boss.\n     * @notice the NFT token name is declared here. \n     */\n    constructor(\n        string[] memory characterNames,\n        string[] memory characterImageURIs,\n        uint256[] memory characterHp,\n        uint256[] memory characterAttackDmg,\n        string memory bossName,\n        string memory bossImageURI,\n        uint256 bossHp,\n        uint256 bossAttackDamage\n    ) ERC721(\"Abstracts\", \"ABT\") {\n        /// @notice Initialize the boss. Save it to our global \"bigBoss\" state variable.\n        bigBoss = BigBoss({\n            name: bossName,\n            imageURI: bossImageURI,\n            hp: bossHp,\n            maxHp: bossHp,\n            attackDamage: bossAttackDamage\n        });\n        // console.log(\n        //     \"Done initializing boss %s w/ HP %s, img %s\",\n        //     bigBoss.name,\n        //     bigBoss.hp,\n        //     bigBoss.imageURI\n        // );\n\n        /**\n        * @notice Loop through all the characters, and save their attributes.'s values \n                  in our contract so  we can use them later when we mint our NFTs.   \n        */\n        for (uint256 i = 0; i < characterNames.length; i += 1) {\n            defaultCharacters.push(\n                CharacterAttributes({\n                    characterIndex: i,\n                    name: characterNames[i],\n                    imageURI: characterImageURIs[i],\n                    hp: characterHp[i],\n                    maxHp: characterHp[i],\n                    attackDamage: characterAttackDmg[i]\n                })\n            );\n            // CharacterAttributes memory c = defaultCharacters[i];\n\n            // console.log(\n            //     \"Done initializing %s w/ HP %s, img %s\",\n            //     c.name,\n            //     c.hp,\n            //     c.imageURI\n            // );\n        }\n\n        /**\n        * @dev tokenIds is incremented here so that the first NFT has an ID of 1\n               instead of 0   \n        */\n        _tokenIds.increment();\n    }\n\n    // Users would be able to hit this function and get their NFT based on the\n    // characterId they send in!\n\n    /**\n    * @notice a Character minting function\n    * @dev Users would be able to hit this function and get their NFT based on the\n           characterId they send in!\n    * @param _characterIndex  character Id \n    */\n    function mintCharacterNFT(uint256 _characterIndex) external {\n        //@notice Get current tokenId (starts at 1 since we incremented in the constructor).\n        uint256 newItemId = _tokenIds.current();\n        ///@notice The magical function from the ERC721 contract ! Assigns the tokenId to the caller's wallet address.\n        _safeMint(msg.sender, newItemId);\n\n        ///@notice  map the tokenId => their character attributes\n        nftHolderAttributes[newItemId] = CharacterAttributes({\n            characterIndex: _characterIndex,\n            name: defaultCharacters[_characterIndex].name,\n            imageURI: defaultCharacters[_characterIndex].imageURI,\n            hp: defaultCharacters[_characterIndex].hp,\n            maxHp: defaultCharacters[_characterIndex].hp,\n            attackDamage: defaultCharacters[_characterIndex].attackDamage\n        });\n\n        // console.log(\n        //     \"Minted NFT w/ tokenId %s and characterIndex %s\",\n        //     newItemId,\n        //     _characterIndex\n        // );\n\n        ///@notice Keep an easy way to see who owns what NFT.\n        nftHolders[msg.sender] = newItemId;\n\n        ///@notice Increment the tokenId for the next person that uses it\n        _tokenIds.increment();\n\n        // emit event\n        emit CharacterNFTMinted(msg.sender, newItemId, _characterIndex);\n    }\n\n    /**\n     * @notice Standard tokenURI function\n     * @dev this function basically attach nftHolderAttributes to the tokenURI by overriding it\n     * @param _tokenId  expects a NFT data in JSON\n     * @return NFT with Assigned Metadata\n     */\n\n    function tokenURI(uint256 _tokenId)\n        public\n        view\n        override\n        returns (string memory)\n    {\n        // /**\n        //  * @notice retrieves this specific NFTs data by querying for it using it's _tokenId\n        //  * @dev if I did tokenURI(256) it would return the JSON data related the 256th NFT (if it existed!).\n        //  */\n        CharacterAttributes memory charAttributes = nftHolderAttributes[\n            _tokenId\n        ];\n\n        string memory strHp = Strings.toString(charAttributes.hp);\n        string memory strMaxHp = Strings.toString(charAttributes.maxHp);\n        string memory strAttackDamage = Strings.toString(\n            charAttributes.attackDamage\n        );\n\n        // /**\n        // * @notice takes all the data provided by tokenId and pack it dynamically here\n        // * @dev abi.encodePacked just combines strings. its done because we can\n        //        change things like the NFTs HP or image later if we wanted and it'd\n        //        update on the NFT itself! It's dynamic.\n        // */\n        string memory json = Base64.encode(\n            bytes(\n                string(\n                    abi.encodePacked(\n                        '{\"name\": \"',\n                        charAttributes.name,\n                        \" -- NFT #: \",\n                        Strings.toString(_tokenId),\n                        '\", \"description\": \"This is an NFT that lets people play in the game Abstract attacks!\", \"image\": \"',\n                        charAttributes.imageURI,\n                        '\", \"attributes\": [ { \"trait_type\": \"Health Points\", \"value\": ',\n                        strHp,\n                        ', \"max_value\":',\n                        strMaxHp,\n                        '}, { \"trait_type\": \"Attack Damage\", \"value\": ',\n                        strAttackDamage,\n                        \"} ]}\"\n                    )\n                )\n            )\n        );\n\n        //\n        //  * @notice encode the formatted json file into base64\n        //  * @dev this is done because it makes it readable by browsers\n        //\n\n        string memory output = string(\n            abi.encodePacked(\"data:application/json;base64,\", json)\n        );\n\n        return output;\n    }\n\n    /**\n     * @notice function that allow players nft to attack boss nft\n     */\n    function attackBoss() public {\n        //  Get the state of the player's NFT.\n        uint256 nftTokenIdOfPlayer = nftHolders[msg.sender];\n        CharacterAttributes storage player = nftHolderAttributes[\n            nftTokenIdOfPlayer\n        ];\n        // console.log(\n        //     \"\\nPlayer w/ character %s about to attack. Has %s HP and %s AD\",\n        //     player.name,\n        //     player.hp,\n        //     player.attackDamage\n        // );\n        // console.log(\n        //     \"Boss %s has %s HP and %s AD\",\n        //     bigBoss.name,\n        //     bigBoss.hp,\n        //     bigBoss.attackDamage\n        // );\n        ///@notice Make sure the player has more than 0 HP.\n        require(player.hp > 0, \"Error: character must have HP to attack boss.\");\n\n        ///@notice Make sure the boss has more than 0 HP.\n        require(bigBoss.hp > 0, \"Error: boss must have HP to attack boss.\");\n\n        /**\n        * @notice Allow player to attack boss.\n        * @dev hp is uint which cant be negative , this why it's assigned to 0,\n               in case it was going to be negative \n        */\n        if (bigBoss.hp < player.attackDamage) {\n            bigBoss.hp = 0;\n        } else {\n            bigBoss.hp = bigBoss.hp - player.attackDamage;\n        }\n        ///@notice Allow boss to attack player.\n        if (player.hp < bigBoss.attackDamage) {\n            player.hp = 0;\n        } else {\n            player.hp = player.hp - bigBoss.attackDamage;\n        }\n\n        // // Console for ease.\n        // console.log(\"Player attacked boss. New boss hp: %s\", bigBoss.hp);\n        // console.log(\"Boss attacked player. New player hp: %s\\n\", player.hp);\n\n        ///@notice emit the new boss and player health points\n        emit AttackComplete(bigBoss.hp, player.hp);\n    }\n\n    /**\n     * @notice check if a user has a character NFT we've given them\n     * @dev this function mainly serves the webapp , as we need to be able to retrieve player's NFT\n     * @return  retrieve the NFT's attributes if the NFT exists\n     */\n\n    function checkIfUserHasNFT()\n        public\n        view\n        returns (CharacterAttributes memory)\n    {\n        // Get the tokenId of the user's character NFT\n        uint256 userNftTokenId = nftHolders[msg.sender];\n\n        /**\n        * @notice If the user has a tokenId in the map, return their character.\n        * @dev we do userNftTokenId > 0, because there's no way to check if \n               a key in a map exists , No matter what key we look for, \n               there will be a default value of 0. Hence nft tokenId start with 1\n        */\n        if (userNftTokenId > 0) {\n            return nftHolderAttributes[userNftTokenId];\n        }\n        ///@notice Else, return an empty character.\n        else {\n            CharacterAttributes memory emptyStruct;\n            return emptyStruct;\n        }\n    }\n\n    /**\n     * @notice  function that Retrieve all default characters.\n     * @dev this function will mainly be useful in our character select screen\n     * @return   all default characters.\n     */\n\n    function getAllDefaultCharacters()\n        public\n        view\n        returns (CharacterAttributes[] memory)\n    {\n        return defaultCharacters;\n    }\n\n    /**\n     * @notice  Retrieve the boss\n     */\n\n    function getBigBoss() public view returns (BigBoss memory) {\n        return bigBoss;\n    }\n\n    /**\n     * @notice  restore the boss health\n     */\n\n    function RestoreBossHealth() public onlyOwner {\n        uint256 oldhealth = bigBoss.hp;\n        bigBoss.hp = bigBoss.maxHp;\n        emit RestoreHealth(oldhealth, bigBoss.hp);\n    }\n\n    /**\n     * @notice  keeper implemntaion to restore boss health\n     */\n\n    function checkUpkeep(\n        bytes calldata /* checkData */\n    )\n        external\n        view\n        override\n        returns (\n            bool upkeepNeeded,\n            bytes memory /* performData */\n        )\n    {\n        upkeepNeeded = bigBoss.hp <= 0;\n    }\n\n    function performUpkeep(\n        bytes calldata /* performData */\n    ) external override onlyKeepers {\n        uint256 oldhealth = bigBoss.hp;\n        bigBoss.hp = bigBoss.maxHp;\n        emit RestoreHealth(oldhealth, bigBoss.hp);\n    }\n}\n",
  "sourcePath": "D:\\blcokchain bootcamp\\blockchain-developer-bootcamp-final-project\\smart-contract\\contracts\\NFTGAME.sol",
  "compiler": {
    "name": "solc",
    "version": "0.8.0+commit.c7dfd78e.Emscripten.clang"
  },
  "schemaVersion": "3.4.3",
  "updatedAt": "2021-11-12T12:30:32.851Z",
  "networkType": "ethereum",
  "devdoc": {
    "events": {
      "CharacterNFTMinted(address,uint256,uint256)": {
        "params": {
          "characterIndex": "index of the minted character .",
          "sender": "the NFT owner",
          "tokenId": "the NFT Id"
        }
      }
    },
    "kind": "dev",
    "methods": {
      "approve(address,uint256)": {
        "details": "See {IERC721-approve}."
      },
      "balanceOf(address)": {
        "details": "See {IERC721-balanceOf}."
      },
      "checkIfUserHasNFT()": {
        "details": "this function mainly serves the webapp , as we need to be able to retrieve player's NFT",
        "returns": {
          "_0": "retrieve the NFT's attributes if the NFT exists"
        }
      },
      "constructor": {
        "details": "characters attr. are an array, because we have many of them but boss isnt as there is only a single boss."
      },
      "getAllDefaultCharacters()": {
        "details": "this function will mainly be useful in our character select screen",
        "returns": {
          "_0": "all default characters."
        }
      },
      "getApproved(uint256)": {
        "details": "See {IERC721-getApproved}."
      },
      "isApprovedForAll(address,address)": {
        "details": "See {IERC721-isApprovedForAll}."
      },
      "mintCharacterNFT(uint256)": {
        "details": "Users would be able to hit this function and get their NFT based on the characterId they send in!",
        "params": {
          "_characterIndex": "character Id "
        }
      },
      "name()": {
        "details": "See {IERC721Metadata-name}."
      },
      "owner()": {
        "details": "Returns the address of the current owner."
      },
      "ownerOf(uint256)": {
        "details": "See {IERC721-ownerOf}."
      },
      "renounceOwnership()": {
        "details": "Leaves the contract without owner. It will not be possible to call `onlyOwner` functions anymore. Can only be called by the current owner. NOTE: Renouncing ownership will leave the contract without an owner, thereby removing any functionality that is only available to the owner."
      },
      "safeTransferFrom(address,address,uint256)": {
        "details": "See {IERC721-safeTransferFrom}."
      },
      "safeTransferFrom(address,address,uint256,bytes)": {
        "details": "See {IERC721-safeTransferFrom}."
      },
      "setApprovalForAll(address,bool)": {
        "details": "See {IERC721-setApprovalForAll}."
      },
      "supportsInterface(bytes4)": {
        "details": "See {IERC165-supportsInterface}."
      },
      "symbol()": {
        "details": "See {IERC721Metadata-symbol}."
      },
      "tokenURI(uint256)": {
        "details": "this function basically attach nftHolderAttributes to the tokenURI by overriding it",
        "params": {
          "_tokenId": "expects a NFT data in JSON"
        },
        "returns": {
          "_0": "NFT with Assigned Metadata"
        }
      },
      "transferFrom(address,address,uint256)": {
        "details": "See {IERC721-transferFrom}."
      },
      "transferOwnership(address)": {
        "details": "Transfers ownership of the contract to a new account (`newOwner`). Can only be called by the current owner."
      }
    },
    "stateVariables": {
      "defaultCharacters": {
        "details": "An array that helps hold the default data for the charactes  this will be helpful when minting new characters in order to  know thier attributes "
      }
    },
    "version": 1
  },
  "userdoc": {
    "events": {
      "AttackComplete(uint256,uint256)": {
        "notice": "an event that fires after a player attack the boss"
      },
      "CharacterNFTMinted(address,uint256,uint256)": {
        "notice": "an event for minted NFTS."
      },
      "RestoreHealth(uint256,uint256)": {
        "notice": "an event that fires after a owner restore Boss Health"
      }
    },
    "kind": "user",
    "methods": {
      "RestoreBossHealth()": {
        "notice": "restore the boss health"
      },
      "attackBoss()": {
        "notice": "function that allow players nft to attack boss nft"
      },
      "checkIfUserHasNFT()": {
        "notice": "check if a user has a character NFT we've given them"
      },
      "checkUpkeep(bytes)": {
        "notice": "keeper implemntaion to restore boss health"
      },
      "constructor": {
        "notice": "this is a constructor that contains all characters/boss attr.the NFT token name is declared here. "
      },
      "getAllDefaultCharacters()": {
        "notice": "function that Retrieve all default characters."
      },
      "getBigBoss()": {
        "notice": "Retrieve the boss"
      },
      "keepersRegistry()": {
        "notice": "keepers Registry address"
      },
      "mintCharacterNFT(uint256)": {
        "notice": "a Character minting function"
      },
      "nftHolderAttributes(uint256)": {
        "notice": "create a mapping from the nft's tokenId => that NFTs attributes."
      },
      "nftHolders(address)": {
        "notice": "A mapping from an address => the NFTs tokenId. provides a simple  way to store the owner of the NFT and reference it later"
      },
      "tokenURI(uint256)": {
        "notice": "Standard tokenURI function"
      }
    },
    "notice": "Abstract Wars NFTGAME contract inherits from ERC721, which is the standard NFT contract!",
    "version": 1
  }
}