{
  "contractName": "NFTGAME",
  "abi": [
    {
      "inputs": [
        {
          "internalType": "string[]",
          "name": "characterNames",
          "type": "string[]"
        },
        {
          "internalType": "string[]",
          "name": "characterImageURIs",
          "type": "string[]"
        },
        {
          "internalType": "uint256[]",
          "name": "characterHp",
          "type": "uint256[]"
        },
        {
          "internalType": "uint256[]",
          "name": "characterAttackDmg",
          "type": "uint256[]"
        },
        {
          "internalType": "string",
          "name": "bossName",
          "type": "string"
        },
        {
          "internalType": "string",
          "name": "bossImageURI",
          "type": "string"
        },
        {
          "internalType": "uint256",
          "name": "bossHp",
          "type": "uint256"
        },
        {
          "internalType": "uint256",
          "name": "bossAttackDamage",
          "type": "uint256"
        }
      ],
      "stateMutability": "nonpayable",
      "type": "constructor"
    },
    {
      "anonymous": false,
      "inputs": [
        {
          "indexed": true,
          "internalType": "address",
          "name": "owner",
          "type": "address"
        },
        {
          "indexed": true,
          "internalType": "address",
          "name": "approved",
          "type": "address"
        },
        {
          "indexed": true,
          "internalType": "uint256",
          "name": "tokenId",
          "type": "uint256"
        }
      ],
      "name": "Approval",
      "type": "event"
    },
    {
      "anonymous": false,
      "inputs": [
        {
          "indexed": true,
          "internalType": "address",
          "name": "owner",
          "type": "address"
        },
        {
          "indexed": true,
          "internalType": "address",
          "name": "operator",
          "type": "address"
        },
        {
          "indexed": false,
          "internalType": "bool",
          "name": "approved",
          "type": "bool"
        }
      ],
      "name": "ApprovalForAll",
      "type": "event"
    },
    {
      "anonymous": false,
      "inputs": [
        {
          "indexed": false,
          "internalType": "uint256",
          "name": "newBossHp",
          "type": "uint256"
        },
        {
          "indexed": false,
          "internalType": "uint256",
          "name": "newPlayerHp",
          "type": "uint256"
        }
      ],
      "name": "AttackComplete",
      "type": "event"
    },
    {
      "anonymous": false,
      "inputs": [
        {
          "indexed": false,
          "internalType": "address",
          "name": "sender",
          "type": "address"
        },
        {
          "indexed": false,
          "internalType": "uint256",
          "name": "tokenId",
          "type": "uint256"
        },
        {
          "indexed": false,
          "internalType": "uint256",
          "name": "characterIndex",
          "type": "uint256"
        }
      ],
      "name": "CharacterNFTMinted",
      "type": "event"
    },
    {
      "anonymous": false,
      "inputs": [
        {
          "indexed": true,
          "internalType": "address",
          "name": "previousOwner",
          "type": "address"
        },
        {
          "indexed": true,
          "internalType": "address",
          "name": "newOwner",
          "type": "address"
        }
      ],
      "name": "OwnershipTransferred",
      "type": "event"
    },
    {
      "anonymous": false,
      "inputs": [
        {
          "indexed": false,
          "internalType": "uint256",
          "name": "oldBossHp",
          "type": "uint256"
        },
        {
          "indexed": false,
          "internalType": "uint256",
          "name": "newBossHp",
          "type": "uint256"
        }
      ],
      "name": "RestoreHealth",
      "type": "event"
    },
    {
      "anonymous": false,
      "inputs": [
        {
          "indexed": true,
          "internalType": "address",
          "name": "from",
          "type": "address"
        },
        {
          "indexed": true,
          "internalType": "address",
          "name": "to",
          "type": "address"
        },
        {
          "indexed": true,
          "internalType": "uint256",
          "name": "tokenId",
          "type": "uint256"
        }
      ],
      "name": "Transfer",
      "type": "event"
    },
    {
      "inputs": [
        {
          "internalType": "address",
          "name": "to",
          "type": "address"
        },
        {
          "internalType": "uint256",
          "name": "tokenId",
          "type": "uint256"
        }
      ],
      "name": "approve",
      "outputs": [],
      "stateMutability": "nonpayable",
      "type": "function"
    },
    {
      "inputs": [
        {
          "internalType": "address",
          "name": "owner",
          "type": "address"
        }
      ],
      "name": "balanceOf",
      "outputs": [
        {
          "internalType": "uint256",
          "name": "",
          "type": "uint256"
        }
      ],
      "stateMutability": "view",
      "type": "function",
      "constant": true
    },
    {
      "inputs": [],
      "name": "bigBoss",
      "outputs": [
        {
          "internalType": "string",
          "name": "name",
          "type": "string"
        },
        {
          "internalType": "string",
          "name": "imageURI",
          "type": "string"
        },
        {
          "internalType": "uint256",
          "name": "hp",
          "type": "uint256"
        },
        {
          "internalType": "uint256",
          "name": "maxHp",
          "type": "uint256"
        },
        {
          "internalType": "uint256",
          "name": "attackDamage",
          "type": "uint256"
        }
      ],
      "stateMutability": "view",
      "type": "function",
      "constant": true
    },
    {
      "inputs": [
        {
          "internalType": "uint256",
          "name": "tokenId",
          "type": "uint256"
        }
      ],
      "name": "getApproved",
      "outputs": [
        {
          "internalType": "address",
          "name": "",
          "type": "address"
        }
      ],
      "stateMutability": "view",
      "type": "function",
      "constant": true
    },
    {
      "inputs": [
        {
          "internalType": "address",
          "name": "owner",
          "type": "address"
        },
        {
          "internalType": "address",
          "name": "operator",
          "type": "address"
        }
      ],
      "name": "isApprovedForAll",
      "outputs": [
        {
          "internalType": "bool",
          "name": "",
          "type": "bool"
        }
      ],
      "stateMutability": "view",
      "type": "function",
      "constant": true
    },
    {
      "inputs": [],
      "name": "name",
      "outputs": [
        {
          "internalType": "string",
          "name": "",
          "type": "string"
        }
      ],
      "stateMutability": "view",
      "type": "function",
      "constant": true
    },
    {
      "inputs": [
        {
          "internalType": "uint256",
          "name": "",
          "type": "uint256"
        }
      ],
      "name": "nftHolderAttributes",
      "outputs": [
        {
          "internalType": "uint256",
          "name": "characterIndex",
          "type": "uint256"
        },
        {
          "internalType": "string",
          "name": "name",
          "type": "string"
        },
        {
          "internalType": "string",
          "name": "imageURI",
          "type": "string"
        },
        {
          "internalType": "uint256",
          "name": "hp",
          "type": "uint256"
        },
        {
          "internalType": "uint256",
          "name": "maxHp",
          "type": "uint256"
        },
        {
          "internalType": "uint256",
          "name": "attackDamage",
          "type": "uint256"
        }
      ],
      "stateMutability": "view",
      "type": "function",
      "constant": true
    },
    {
      "inputs": [
        {
          "internalType": "address",
          "name": "",
          "type": "address"
        }
      ],
      "name": "nftHolders",
      "outputs": [
        {
          "internalType": "uint256",
          "name": "",
          "type": "uint256"
        }
      ],
      "stateMutability": "view",
      "type": "function",
      "constant": true
    },
    {
      "inputs": [],
      "name": "owner",
      "outputs": [
        {
          "internalType": "address",
          "name": "",
          "type": "address"
        }
      ],
      "stateMutability": "view",
      "type": "function",
      "constant": true
    },
    {
      "inputs": [
        {
          "internalType": "uint256",
          "name": "tokenId",
          "type": "uint256"
        }
      ],
      "name": "ownerOf",
      "outputs": [
        {
          "internalType": "address",
          "name": "",
          "type": "address"
        }
      ],
      "stateMutability": "view",
      "type": "function",
      "constant": true
    },
    {
      "inputs": [],
      "name": "renounceOwnership",
      "outputs": [],
      "stateMutability": "nonpayable",
      "type": "function"
    },
    {
      "inputs": [
        {
          "internalType": "address",
          "name": "from",
          "type": "address"
        },
        {
          "internalType": "address",
          "name": "to",
          "type": "address"
        },
        {
          "internalType": "uint256",
          "name": "tokenId",
          "type": "uint256"
        }
      ],
      "name": "safeTransferFrom",
      "outputs": [],
      "stateMutability": "nonpayable",
      "type": "function"
    },
    {
      "inputs": [
        {
          "internalType": "address",
          "name": "from",
          "type": "address"
        },
        {
          "internalType": "address",
          "name": "to",
          "type": "address"
        },
        {
          "internalType": "uint256",
          "name": "tokenId",
          "type": "uint256"
        },
        {
          "internalType": "bytes",
          "name": "_data",
          "type": "bytes"
        }
      ],
      "name": "safeTransferFrom",
      "outputs": [],
      "stateMutability": "nonpayable",
      "type": "function"
    },
    {
      "inputs": [
        {
          "internalType": "address",
          "name": "operator",
          "type": "address"
        },
        {
          "internalType": "bool",
          "name": "approved",
          "type": "bool"
        }
      ],
      "name": "setApprovalForAll",
      "outputs": [],
      "stateMutability": "nonpayable",
      "type": "function"
    },
    {
      "inputs": [
        {
          "internalType": "bytes4",
          "name": "interfaceId",
          "type": "bytes4"
        }
      ],
      "name": "supportsInterface",
      "outputs": [
        {
          "internalType": "bool",
          "name": "",
          "type": "bool"
        }
      ],
      "stateMutability": "view",
      "type": "function",
      "constant": true
    },
    {
      "inputs": [],
      "name": "symbol",
      "outputs": [
        {
          "internalType": "string",
          "name": "",
          "type": "string"
        }
      ],
      "stateMutability": "view",
      "type": "function",
      "constant": true
    },
    {
      "inputs": [
        {
          "internalType": "address",
          "name": "from",
          "type": "address"
        },
        {
          "internalType": "address",
          "name": "to",
          "type": "address"
        },
        {
          "internalType": "uint256",
          "name": "tokenId",
          "type": "uint256"
        }
      ],
      "name": "transferFrom",
      "outputs": [],
      "stateMutability": "nonpayable",
      "type": "function"
    },
    {
      "inputs": [
        {
          "internalType": "address",
          "name": "newOwner",
          "type": "address"
        }
      ],
      "name": "transferOwnership",
      "outputs": [],
      "stateMutability": "nonpayable",
      "type": "function"
    },
    {
      "inputs": [
        {
          "internalType": "uint256",
          "name": "_characterIndex",
          "type": "uint256"
        }
      ],
      "name": "mintCharacterNFT",
      "outputs": [],
      "stateMutability": "nonpayable",
      "type": "function"
    },
    {
      "inputs": [
        {
          "internalType": "uint256",
          "name": "_tokenId",
          "type": "uint256"
        }
      ],
      "name": "tokenURI",
      "outputs": [
        {
          "internalType": "string",
          "name": "",
          "type": "string"
        }
      ],
      "stateMutability": "view",
      "type": "function",
      "constant": true
    },
    {
      "inputs": [],
      "name": "attackBoss",
      "outputs": [],
      "stateMutability": "nonpayable",
      "type": "function"
    },
    {
      "inputs": [],
      "name": "checkIfUserHasNFT",
      "outputs": [
        {
          "components": [
            {
              "internalType": "uint256",
              "name": "characterIndex",
              "type": "uint256"
            },
            {
              "internalType": "string",
              "name": "name",
              "type": "string"
            },
            {
              "internalType": "string",
              "name": "imageURI",
              "type": "string"
            },
            {
              "internalType": "uint256",
              "name": "hp",
              "type": "uint256"
            },
            {
              "internalType": "uint256",
              "name": "maxHp",
              "type": "uint256"
            },
            {
              "internalType": "uint256",
              "name": "attackDamage",
              "type": "uint256"
            }
          ],
          "internalType": "struct NFTGAME.CharacterAttributes",
          "name": "",
          "type": "tuple"
        }
      ],
      "stateMutability": "view",
      "type": "function",
      "constant": true
    },
    {
      "inputs": [],
      "name": "getAllDefaultCharacters",
      "outputs": [
        {
          "components": [
            {
              "internalType": "uint256",
              "name": "characterIndex",
              "type": "uint256"
            },
            {
              "internalType": "string",
              "name": "name",
              "type": "string"
            },
            {
              "internalType": "string",
              "name": "imageURI",
              "type": "string"
            },
            {
              "internalType": "uint256",
              "name": "hp",
              "type": "uint256"
            },
            {
              "internalType": "uint256",
              "name": "maxHp",
              "type": "uint256"
            },
            {
              "internalType": "uint256",
              "name": "attackDamage",
              "type": "uint256"
            }
          ],
          "internalType": "struct NFTGAME.CharacterAttributes[]",
          "name": "",
          "type": "tuple[]"
        }
      ],
      "stateMutability": "view",
      "type": "function",
      "constant": true
    },
    {
      "inputs": [],
      "name": "getBigBoss",
      "outputs": [
        {
          "components": [
            {
              "internalType": "string",
              "name": "name",
              "type": "string"
            },
            {
              "internalType": "string",
              "name": "imageURI",
              "type": "string"
            },
            {
              "internalType": "uint256",
              "name": "hp",
              "type": "uint256"
            },
            {
              "internalType": "uint256",
              "name": "maxHp",
              "type": "uint256"
            },
            {
              "internalType": "uint256",
              "name": "attackDamage",
              "type": "uint256"
            }
          ],
          "internalType": "struct NFTGAME.BigBoss",
          "name": "",
          "type": "tuple"
        }
      ],
      "stateMutability": "view",
      "type": "function",
      "constant": true
    },
    {
      "inputs": [],
      "name": "RestoreBossHealth",
      "outputs": [],
      "stateMutability": "nonpayable",
      "type": "function"
    }
  ],
  "bytecode": "0x60806040523480156200001157600080fd5b50604051620050ee380380620050ee83398181016040528101906200003791906200071f565b6040518060400160405280600981526020017f41627374726163747300000000000000000000000000000000000000000000008152506040518060400160405280600381526020017f41425400000000000000000000000000000000000000000000000000000000008152508160009080519060200190620000bb929190620004b2565b508060019080519060200190620000d4929190620004b2565b505050620000f7620000eb620003ce60201b60201c565b620003d660201b60201c565b6040518060a0016040528085815260200184815260200183815260200183815260200182815250600b60008201518160000190805190602001906200013e929190620004b2565b5060208201518160010190805190602001906200015d929190620004b2565b5060408201518160020155606082015181600301556080820151816004015590505060005b8851811015620003a85760086040518060c001604052808381526020018b8481518110620001d9577f4e487b7100000000000000000000000000000000000000000000000000000000600052603260045260246000fd5b602002602001015181526020018a848151811062000220577f4e487b7100000000000000000000000000000000000000000000000000000000600052603260045260246000fd5b6020026020010151815260200189848151811062000267577f4e487b7100000000000000000000000000000000000000000000000000000000600052603260045260246000fd5b60200260200101518152602001898481518110620002ae577f4e487b7100000000000000000000000000000000000000000000000000000000600052603260045260246000fd5b60200260200101518152602001888481518110620002f5577f4e487b7100000000000000000000000000000000000000000000000000000000600052603260045260246000fd5b6020026020010151815250908060018154018082558091505060019003906000526020600020906006020160009091909190915060008201518160000155602082015181600101908051906020019062000351929190620004b2565b50604082015181600201908051906020019062000370929190620004b2565b50606082015181600301556080820151816004015560a082015181600501555050600181620003a091906200093d565b905062000182565b50620003c060076200049c60201b62001e4a1760201c565b505050505050505062000ab7565b600033905090565b6000600660009054906101000a900473ffffffffffffffffffffffffffffffffffffffff16905081600660006101000a81548173ffffffffffffffffffffffffffffffffffffffff021916908373ffffffffffffffffffffffffffffffffffffffff1602179055508173ffffffffffffffffffffffffffffffffffffffff168173ffffffffffffffffffffffffffffffffffffffff167f8be0079c531659141344cd1fd0a4f28419497f9722a3daafe3b4186f6b6457e060405160405180910390a35050565b6001816000016000828254019250508190555050565b828054620004c090620009da565b90600052602060002090601f016020900481019282620004e4576000855562000530565b82601f10620004ff57805160ff191683800117855562000530565b8280016001018555821562000530579182015b828111156200052f57825182559160200191906001019062000512565b5b5090506200053f919062000543565b5090565b5b808211156200055e57600081600090555060010162000544565b5090565b6000620005796200057384620008ac565b62000878565b9050808382526020820190508260005b85811015620005bd5781518501620005a28882620006db565b84526020840193506020830192505060018101905062000589565b5050509392505050565b6000620005de620005d884620008db565b62000878565b90508083825260208201905082856020860282011115620005fe57600080fd5b60005b8581101562000632578162000617888262000708565b84526020840193506020830192505060018101905062000601565b5050509392505050565b6000620006536200064d846200090a565b62000878565b9050828152602081018484840111156200066c57600080fd5b62000679848285620009a4565b509392505050565b600082601f8301126200069357600080fd5b8151620006a584826020860162000562565b91505092915050565b600082601f830112620006c057600080fd5b8151620006d2848260208601620005c7565b91505092915050565b600082601f830112620006ed57600080fd5b8151620006ff8482602086016200063c565b91505092915050565b600081519050620007198162000a9d565b92915050565b600080600080600080600080610100898b0312156200073d57600080fd5b600089015167ffffffffffffffff8111156200075857600080fd5b620007668b828c0162000681565b985050602089015167ffffffffffffffff8111156200078457600080fd5b620007928b828c0162000681565b975050604089015167ffffffffffffffff811115620007b057600080fd5b620007be8b828c01620006ae565b965050606089015167ffffffffffffffff811115620007dc57600080fd5b620007ea8b828c01620006ae565b955050608089015167ffffffffffffffff8111156200080857600080fd5b620008168b828c01620006db565b94505060a089015167ffffffffffffffff8111156200083457600080fd5b620008428b828c01620006db565b93505060c0620008558b828c0162000708565b92505060e0620008688b828c0162000708565b9150509295985092959890939650565b6000604051905081810181811067ffffffffffffffff82111715620008a257620008a162000a6e565b5b8060405250919050565b600067ffffffffffffffff821115620008ca57620008c962000a6e565b5b602082029050602081019050919050565b600067ffffffffffffffff821115620008f957620008f862000a6e565b5b602082029050602081019050919050565b600067ffffffffffffffff82111562000928576200092762000a6e565b5b601f19601f8301169050602081019050919050565b60006200094a826200099a565b915062000957836200099a565b9250827fffffffffffffffffffffffffffffffffffffffffffffffffffffffffffffffff038211156200098f576200098e62000a10565b5b828201905092915050565b6000819050919050565b60005b83811015620009c4578082015181840152602081019050620009a7565b83811115620009d4576000848401525b50505050565b60006002820490506001821680620009f357607f821691505b6020821081141562000a0a5762000a0962000a3f565b5b50919050565b7f4e487b7100000000000000000000000000000000000000000000000000000000600052601160045260246000fd5b7f4e487b7100000000000000000000000000000000000000000000000000000000600052602260045260246000fd5b7f4e487b7100000000000000000000000000000000000000000000000000000000600052604160045260246000fd5b62000aa8816200099a565b811462000ab457600080fd5b50565b6146278062000ac76000396000f3fe608060405234801561001057600080fd5b50600436106101735760003560e01c806395d89b41116100de578063b953084e11610097578063d4f24c5b11610071578063d4f24c5b14610443578063e985e9c51461044d578063f2fde38b1461047d578063f8b81ef71461049957610173565b8063b953084e146103d7578063c87b56dd146103f5578063c8cf27f41461042557610173565b806395d89b411461032057806398da4c951461033e578063a22cb46514610373578063a9c326791461038f578063b013969e146103b1578063b88d4fde146103bb57610173565b806342842e0e1161013057806342842e0e1461024c5780636352211e1461026857806370a0823114610298578063715018a6146102c85780637df124a1146102d25780638da5cb5b1461030257610173565b806301ffc9a7146101785780630665f961146101a857806306fdde03146101c6578063081812fc146101e4578063095ea7b31461021457806323b872dd14610230575b600080fd5b610192600480360381019061018d9190612f42565b6104b5565b60405161019f9190613d6e565b60405180910390f35b6101b0610597565b6040516101bd919061402c565b60405180910390f35b6101ce6106f3565b6040516101db9190613d89565b60405180910390f35b6101fe60048036038101906101f99190612f94565b610785565b60405161020b9190613cae565b60405180910390f35b61022e60048036038101906102299190612f06565b61080a565b005b61024a60048036038101906102459190612e00565b610922565b005b61026660048036038101906102619190612e00565b610982565b005b610282600480360381019061027d9190612f94565b6109a2565b60405161028f9190613cae565b60405180910390f35b6102b260048036038101906102ad9190612d9b565b610a54565b6040516102bf9190614070565b60405180910390f35b6102d0610b0c565b005b6102ec60048036038101906102e79190612d9b565b610b94565b6040516102f99190614070565b60405180910390f35b61030a610bac565b6040516103179190613cae565b60405180910390f35b610328610bd6565b6040516103359190613d89565b60405180910390f35b61035860048036038101906103539190612f94565b610c68565b60405161036a9695949392919061408b565b60405180910390f35b61038d60048036038101906103889190612eca565b610db4565b005b610397610f35565b6040516103a8959493929190613dab565b60405180910390f35b6103b9611069565b005b6103d560048036038101906103d09190612e4f565b61113f565b005b6103df6111a1565b6040516103ec9190613d4c565b60405180910390f35b61040f600480360381019061040a9190612f94565b61134c565b60405161041c9190613d89565b60405180910390f35b61042d611567565b60405161043a919061404e565b60405180910390f35b61044b61173f565b005b61046760048036038101906104629190612dc4565b6118ed565b6040516104749190613d6e565b60405180910390f35b61049760048036038101906104929190612d9b565b611981565b005b6104b360048036038101906104ae9190612f94565b611a79565b005b60007f80ac58cd000000000000000000000000000000000000000000000000000000007bffffffffffffffffffffffffffffffffffffffffffffffffffffffff1916827bffffffffffffffffffffffffffffffffffffffffffffffffffffffff1916148061058057507f5b5e139f000000000000000000000000000000000000000000000000000000007bffffffffffffffffffffffffffffffffffffffffffffffffffffffff1916827bffffffffffffffffffffffffffffffffffffffffffffffffffffffff1916145b80610590575061058f82611e60565b5b9050919050565b61059f612bc2565b600b6040518060a00160405290816000820180546105bc906143dc565b80601f01602080910402602001604051908101604052809291908181526020018280546105e8906143dc565b80156106355780601f1061060a57610100808354040283529160200191610635565b820191906000526020600020905b81548152906001019060200180831161061857829003601f168201915b5050505050815260200160018201805461064e906143dc565b80601f016020809104026020016040519081016040528092919081815260200182805461067a906143dc565b80156106c75780601f1061069c576101008083540402835291602001916106c7565b820191906000526020600020905b8154815290600101906020018083116106aa57829003601f168201915b505050505081526020016002820154815260200160038201548152602001600482015481525050905090565b606060008054610702906143dc565b80601f016020809104026020016040519081016040528092919081815260200182805461072e906143dc565b801561077b5780601f106107505761010080835404028352916020019161077b565b820191906000526020600020905b81548152906001019060200180831161075e57829003601f168201915b5050505050905090565b600061079082611eca565b6107cf576040517f08c379a00000000000000000000000000000000000000000000000000000000081526004016107c690613f8c565b60405180910390fd5b6004600083815260200190815260200160002060009054906101000a900473ffffffffffffffffffffffffffffffffffffffff169050919050565b6000610815826109a2565b90508073ffffffffffffffffffffffffffffffffffffffff168373ffffffffffffffffffffffffffffffffffffffff161415610886576040517f08c379a000000000000000000000000000000000000000000000000000000000815260040161087d90613fec565b60405180910390fd5b8073ffffffffffffffffffffffffffffffffffffffff166108a5611f36565b73ffffffffffffffffffffffffffffffffffffffff1614806108d457506108d3816108ce611f36565b6118ed565b5b610913576040517f08c379a000000000000000000000000000000000000000000000000000000000815260040161090a90613eec565b60405180910390fd5b61091d8383611f3e565b505050565b61093361092d611f36565b82611ff7565b610972576040517f08c379a00000000000000000000000000000000000000000000000000000000081526004016109699061400c565b60405180910390fd5b61097d8383836120d5565b505050565b61099d8383836040518060200160405280600081525061113f565b505050565b6000806002600084815260200190815260200160002060009054906101000a900473ffffffffffffffffffffffffffffffffffffffff169050600073ffffffffffffffffffffffffffffffffffffffff168173ffffffffffffffffffffffffffffffffffffffff161415610a4b576040517f08c379a0000000000000000000000000000000000000000000000000000000008152600401610a4290613f2c565b60405180910390fd5b80915050919050565b60008073ffffffffffffffffffffffffffffffffffffffff168273ffffffffffffffffffffffffffffffffffffffff161415610ac5576040517f08c379a0000000000000000000000000000000000000000000000000000000008152600401610abc90613f0c565b60405180910390fd5b600360008373ffffffffffffffffffffffffffffffffffffffff1673ffffffffffffffffffffffffffffffffffffffff168152602001908152602001600020549050919050565b610b14611f36565b73ffffffffffffffffffffffffffffffffffffffff16610b32610bac565b73ffffffffffffffffffffffffffffffffffffffff1614610b88576040517f08c379a0000000000000000000000000000000000000000000000000000000008152600401610b7f90613fac565b60405180910390fd5b610b926000612331565b565b600a6020528060005260406000206000915090505481565b6000600660009054906101000a900473ffffffffffffffffffffffffffffffffffffffff16905090565b606060018054610be5906143dc565b80601f0160208091040260200160405190810160405280929190818152602001828054610c11906143dc565b8015610c5e5780601f10610c3357610100808354040283529160200191610c5e565b820191906000526020600020905b815481529060010190602001808311610c4157829003601f168201915b5050505050905090565b6009602052806000526040600020600091509050806000015490806001018054610c91906143dc565b80601f0160208091040260200160405190810160405280929190818152602001828054610cbd906143dc565b8015610d0a5780601f10610cdf57610100808354040283529160200191610d0a565b820191906000526020600020905b815481529060010190602001808311610ced57829003601f168201915b505050505090806002018054610d1f906143dc565b80601f0160208091040260200160405190810160405280929190818152602001828054610d4b906143dc565b8015610d985780601f10610d6d57610100808354040283529160200191610d98565b820191906000526020600020905b815481529060010190602001808311610d7b57829003601f168201915b5050505050908060030154908060040154908060050154905086565b610dbc611f36565b73ffffffffffffffffffffffffffffffffffffffff168273ffffffffffffffffffffffffffffffffffffffff161415610e2a576040517f08c379a0000000000000000000000000000000000000000000000000000000008152600401610e2190613eac565b60405180910390fd5b8060056000610e37611f36565b73ffffffffffffffffffffffffffffffffffffffff1673ffffffffffffffffffffffffffffffffffffffff16815260200190815260200160002060008473ffffffffffffffffffffffffffffffffffffffff1673ffffffffffffffffffffffffffffffffffffffff16815260200190815260200160002060006101000a81548160ff0219169083151502179055508173ffffffffffffffffffffffffffffffffffffffff16610ee4611f36565b73ffffffffffffffffffffffffffffffffffffffff167f17307eab39ab6107e8899845ad3d59bd9653f200f220920489ca2b5937696c3183604051610f299190613d6e565b60405180910390a35050565b600b806000018054610f46906143dc565b80601f0160208091040260200160405190810160405280929190818152602001828054610f72906143dc565b8015610fbf5780601f10610f9457610100808354040283529160200191610fbf565b820191906000526020600020905b815481529060010190602001808311610fa257829003601f168201915b505050505090806001018054610fd4906143dc565b80601f0160208091040260200160405190810160405280929190818152602001828054611000906143dc565b801561104d5780601f106110225761010080835404028352916020019161104d565b820191906000526020600020905b81548152906001019060200180831161103057829003601f168201915b5050505050908060020154908060030154908060040154905085565b611071611f36565b73ffffffffffffffffffffffffffffffffffffffff1661108f610bac565b73ffffffffffffffffffffffffffffffffffffffff16146110e5576040517f08c379a00000000000000000000000000000000000000000000000000000000081526004016110dc90613fac565b60405180910390fd5b6000600b600201549050600b60030154600b600201819055507f5c60545d6eea5e2549b3bdfe0ae6ec3e4a4e305d1e05de3dc0ed15ad48443e1f81600b600201546040516111349291906140fa565b60405180910390a150565b61115061114a611f36565b83611ff7565b61118f576040517f08c379a00000000000000000000000000000000000000000000000000000000081526004016111869061400c565b60405180910390fd5b61119b848484846123f7565b50505050565b60606008805480602002602001604051908101604052809291908181526020016000905b8282101561134357838290600052602060002090600602016040518060c001604052908160008201548152602001600182018054611202906143dc565b80601f016020809104026020016040519081016040528092919081815260200182805461122e906143dc565b801561127b5780601f106112505761010080835404028352916020019161127b565b820191906000526020600020905b81548152906001019060200180831161125e57829003601f168201915b50505050508152602001600282018054611294906143dc565b80601f01602080910402602001604051908101604052809291908181526020018280546112c0906143dc565b801561130d5780601f106112e25761010080835404028352916020019161130d565b820191906000526020600020905b8154815290600101906020018083116112f057829003601f168201915b505050505081526020016003820154815260200160048201548152602001600582015481525050815260200190600101906111c5565b50505050905090565b60606000600960008481526020019081526020016000206040518060c001604052908160008201548152602001600182018054611388906143dc565b80601f01602080910402602001604051908101604052809291908181526020018280546113b4906143dc565b80156114015780601f106113d657610100808354040283529160200191611401565b820191906000526020600020905b8154815290600101906020018083116113e457829003601f168201915b5050505050815260200160028201805461141a906143dc565b80601f0160208091040260200160405190810160405280929190818152602001828054611446906143dc565b80156114935780601f1061146857610100808354040283529160200191611493565b820191906000526020600020905b81548152906001019060200180831161147657829003601f168201915b505050505081526020016003820154815260200160048201548152602001600582015481525050905060006114cb8260600151612453565b905060006114dc8360800151612453565b905060006114ed8460a00151612453565b90506000611533856020015161150289612453565b876040015187878760405160200161151f96959493929190613be7565b604051602081830303815290604052612600565b90506000816040516020016115489190613c8c565b6040516020818303038152906040529050809650505050505050919050565b61156f612bf1565b6000600a60003373ffffffffffffffffffffffffffffffffffffffff1673ffffffffffffffffffffffffffffffffffffffff168152602001908152602001600020549050600081111561172e57600960008281526020019081526020016000206040518060c0016040529081600082015481526020016001820180546115f4906143dc565b80601f0160208091040260200160405190810160405280929190818152602001828054611620906143dc565b801561166d5780601f106116425761010080835404028352916020019161166d565b820191906000526020600020905b81548152906001019060200180831161165057829003601f168201915b50505050508152602001600282018054611686906143dc565b80601f01602080910402602001604051908101604052809291908181526020018280546116b2906143dc565b80156116ff5780601f106116d4576101008083540402835291602001916116ff565b820191906000526020600020905b8154815290600101906020018083116116e257829003601f168201915b50505050508152602001600382015481526020016004820154815260200160058201548152505091505061173c565b611736612bf1565b80925050505b90565b6000600a60003373ffffffffffffffffffffffffffffffffffffffff1673ffffffffffffffffffffffffffffffffffffffff168152602001908152602001600020549050600060096000838152602001908152602001600020905060008160030154116117e1576040517f08c379a00000000000000000000000000000000000000000000000000000000081526004016117d890613f4c565b60405180910390fd5b6000600b6002015411611829576040517f08c379a000000000000000000000000000000000000000000000000000000000815260040161182090613e4c565b60405180910390fd5b8060050154600b60020154101561184a576000600b60020181905550611869565b8060050154600b6002015461185f91906142f2565b600b600201819055505b600b600401548160030154101561188957600081600301819055506118a7565b600b60040154816003015461189e91906142f2565b81600301819055505b7f838ab28464562786a6c4ab2311964b82fa60bd9b14aa7e856af1f3f18d41a414600b6002015482600301546040516118e19291906140fa565b60405180910390a15050565b6000600560008473ffffffffffffffffffffffffffffffffffffffff1673ffffffffffffffffffffffffffffffffffffffff16815260200190815260200160002060008373ffffffffffffffffffffffffffffffffffffffff1673ffffffffffffffffffffffffffffffffffffffff16815260200190815260200160002060009054906101000a900460ff16905092915050565b611989611f36565b73ffffffffffffffffffffffffffffffffffffffff166119a7610bac565b73ffffffffffffffffffffffffffffffffffffffff16146119fd576040517f08c379a00000000000000000000000000000000000000000000000000000000081526004016119f490613fac565b60405180910390fd5b600073ffffffffffffffffffffffffffffffffffffffff168173ffffffffffffffffffffffffffffffffffffffff161415611a6d576040517f08c379a0000000000000000000000000000000000000000000000000000000008152600401611a6490613e2c565b60405180910390fd5b611a7681612331565b50565b6000611a8560076127be565b9050611a9133826127cc565b6040518060c0016040528083815260200160088481548110611adc577f4e487b7100000000000000000000000000000000000000000000000000000000600052603260045260246000fd5b90600052602060002090600602016001018054611af8906143dc565b80601f0160208091040260200160405190810160405280929190818152602001828054611b24906143dc565b8015611b715780601f10611b4657610100808354040283529160200191611b71565b820191906000526020600020905b815481529060010190602001808311611b5457829003601f168201915b5050505050815260200160088481548110611bb5577f4e487b7100000000000000000000000000000000000000000000000000000000600052603260045260246000fd5b90600052602060002090600602016002018054611bd1906143dc565b80601f0160208091040260200160405190810160405280929190818152602001828054611bfd906143dc565b8015611c4a5780601f10611c1f57610100808354040283529160200191611c4a565b820191906000526020600020905b815481529060010190602001808311611c2d57829003601f168201915b5050505050815260200160088481548110611c8e577f4e487b7100000000000000000000000000000000000000000000000000000000600052603260045260246000fd5b906000526020600020906006020160030154815260200160088481548110611cdf577f4e487b7100000000000000000000000000000000000000000000000000000000600052603260045260246000fd5b906000526020600020906006020160030154815260200160088481548110611d30577f4e487b7100000000000000000000000000000000000000000000000000000000600052603260045260246000fd5b90600052602060002090600602016005015481525060096000838152602001908152602001600020600082015181600001556020820151816001019080519060200190611d7e929190612c27565b506040820151816002019080519060200190611d9b929190612c27565b50606082015181600301556080820151816004015560a0820151816005015590505080600a60003373ffffffffffffffffffffffffffffffffffffffff1673ffffffffffffffffffffffffffffffffffffffff16815260200190815260200160002081905550611e0b6007611e4a565b7f4bc303fd457a97b4691b9af582ce71868a3d258638c8d4f8c60988a0f0bfb8cd338284604051611e3e93929190613d15565b60405180910390a15050565b6001816000016000828254019250508190555050565b60007f01ffc9a7000000000000000000000000000000000000000000000000000000007bffffffffffffffffffffffffffffffffffffffffffffffffffffffff1916827bffffffffffffffffffffffffffffffffffffffffffffffffffffffff1916149050919050565b60008073ffffffffffffffffffffffffffffffffffffffff166002600084815260200190815260200160002060009054906101000a900473ffffffffffffffffffffffffffffffffffffffff1673ffffffffffffffffffffffffffffffffffffffff1614159050919050565b600033905090565b816004600083815260200190815260200160002060006101000a81548173ffffffffffffffffffffffffffffffffffffffff021916908373ffffffffffffffffffffffffffffffffffffffff160217905550808273ffffffffffffffffffffffffffffffffffffffff16611fb1836109a2565b73ffffffffffffffffffffffffffffffffffffffff167f8c5be1e5ebec7d5bd14f71427d1e84f3dd0314c0f7b2291e5b200ac8c7c3b92560405160405180910390a45050565b600061200282611eca565b612041576040517f08c379a000000000000000000000000000000000000000000000000000000000815260040161203890613ecc565b60405180910390fd5b600061204c836109a2565b90508073ffffffffffffffffffffffffffffffffffffffff168473ffffffffffffffffffffffffffffffffffffffff1614806120bb57508373ffffffffffffffffffffffffffffffffffffffff166120a384610785565b73ffffffffffffffffffffffffffffffffffffffff16145b806120cc57506120cb81856118ed565b5b91505092915050565b8273ffffffffffffffffffffffffffffffffffffffff166120f5826109a2565b73ffffffffffffffffffffffffffffffffffffffff161461214b576040517f08c379a000000000000000000000000000000000000000000000000000000000815260040161214290613fcc565b60405180910390fd5b600073ffffffffffffffffffffffffffffffffffffffff168273ffffffffffffffffffffffffffffffffffffffff1614156121bb576040517f08c379a00000000000000000000000000000000000000000000000000000000081526004016121b290613e8c565b60405180910390fd5b6121c68383836127ea565b6121d1600082611f3e565b6001600360008573ffffffffffffffffffffffffffffffffffffffff1673ffffffffffffffffffffffffffffffffffffffff168152602001908152602001600020600082825461222191906142f2565b925050819055506001600360008473ffffffffffffffffffffffffffffffffffffffff1673ffffffffffffffffffffffffffffffffffffffff16815260200190815260200160002060008282546122789190614211565b92505081905550816002600083815260200190815260200160002060006101000a81548173ffffffffffffffffffffffffffffffffffffffff021916908373ffffffffffffffffffffffffffffffffffffffff160217905550808273ffffffffffffffffffffffffffffffffffffffff168473ffffffffffffffffffffffffffffffffffffffff167fddf252ad1be2c89b69c2b068fc378daa952ba7f163c4a11628f55a4df523b3ef60405160405180910390a4505050565b6000600660009054906101000a900473ffffffffffffffffffffffffffffffffffffffff16905081600660006101000a81548173ffffffffffffffffffffffffffffffffffffffff021916908373ffffffffffffffffffffffffffffffffffffffff1602179055508173ffffffffffffffffffffffffffffffffffffffff168173ffffffffffffffffffffffffffffffffffffffff167f8be0079c531659141344cd1fd0a4f28419497f9722a3daafe3b4186f6b6457e060405160405180910390a35050565b6124028484846120d5565b61240e848484846127ef565b61244d576040517f08c379a000000000000000000000000000000000000000000000000000000000815260040161244490613e0c565b60405180910390fd5b50505050565b6060600082141561249b576040518060400160405280600181526020017f300000000000000000000000000000000000000000000000000000000000000081525090506125fb565b600082905060005b600082146124cd5780806124b69061440e565b915050600a826124c69190614267565b91506124a3565b60008167ffffffffffffffff81111561250f577f4e487b7100000000000000000000000000000000000000000000000000000000600052604160045260246000fd5b6040519080825280601f01601f1916602001820160405280156125415781602001600182028036833780820191505090505b5090505b600085146125f45760018261255a91906142f2565b9150600a856125699190614457565b60306125759190614211565b60f81b8183815181106125b1577f4e487b7100000000000000000000000000000000000000000000000000000000600052603260045260246000fd5b60200101907effffffffffffffffffffffffffffffffffffffffffffffffffffffffffffff1916908160001a905350600a856125ed9190614267565b9450612545565b8093505050505b919050565b6060600082519050600081141561262957604051806020016040528060008152509150506127b9565b6000600360028361263a9190614211565b6126449190614267565b60046126509190614298565b905060006020826126619190614211565b67ffffffffffffffff8111156126a0577f4e487b7100000000000000000000000000000000000000000000000000000000600052604160045260246000fd5b6040519080825280601f01601f1916602001820160405280156126d25781602001600182028036833780820191505090505b50905060006040518060600160405280604081526020016145b2604091399050600181016020830160005b868110156127765760038101905062ffffff818a015116603f8160121c168401518060081b905060ff603f83600c1c1686015116810190508060081b905060ff603f8360061c1686015116810190508060081b905060ff603f831686015116810190508060e01b905080845260048401935050506126fd565b50600386066001811461279057600281146127a0576127ab565b613d3d60f01b60028303526127ab565b603d60f81b60018303525b508484525050819450505050505b919050565b600081600001549050919050565b6127e6828260405180602001604052806000815250612986565b5050565b505050565b60006128108473ffffffffffffffffffffffffffffffffffffffff166129e1565b15612979578373ffffffffffffffffffffffffffffffffffffffff1663150b7a02612839611f36565b8786866040518563ffffffff1660e01b815260040161285b9493929190613cc9565b602060405180830381600087803b15801561287557600080fd5b505af19250505080156128a657506040513d601f19601f820116820180604052508101906128a39190612f6b565b60015b612929573d80600081146128d6576040519150601f19603f3d011682016040523d82523d6000602084013e6128db565b606091505b50600081511415612921576040517f08c379a000000000000000000000000000000000000000000000000000000000815260040161291890613e0c565b60405180910390fd5b805181602001fd5b63150b7a0260e01b7bffffffffffffffffffffffffffffffffffffffffffffffffffffffff1916817bffffffffffffffffffffffffffffffffffffffffffffffffffffffff19161491505061297e565b600190505b949350505050565b61299083836129f4565b61299d60008484846127ef565b6129dc576040517f08c379a00000000000000000000000000000000000000000000000000000000081526004016129d390613e0c565b60405180910390fd5b505050565b600080823b905060008111915050919050565b600073ffffffffffffffffffffffffffffffffffffffff168273ffffffffffffffffffffffffffffffffffffffff161415612a64576040517f08c379a0000000000000000000000000000000000000000000000000000000008152600401612a5b90613f6c565b60405180910390fd5b612a6d81611eca565b15612aad576040517f08c379a0000000000000000000000000000000000000000000000000000000008152600401612aa490613e6c565b60405180910390fd5b612ab9600083836127ea565b6001600360008473ffffffffffffffffffffffffffffffffffffffff1673ffffffffffffffffffffffffffffffffffffffff1681526020019081526020016000206000828254612b099190614211565b92505081905550816002600083815260200190815260200160002060006101000a81548173ffffffffffffffffffffffffffffffffffffffff021916908373ffffffffffffffffffffffffffffffffffffffff160217905550808273ffffffffffffffffffffffffffffffffffffffff16600073ffffffffffffffffffffffffffffffffffffffff167fddf252ad1be2c89b69c2b068fc378daa952ba7f163c4a11628f55a4df523b3ef60405160405180910390a45050565b6040518060a0016040528060608152602001606081526020016000815260200160008152602001600081525090565b6040518060c001604052806000815260200160608152602001606081526020016000815260200160008152602001600081525090565b828054612c33906143dc565b90600052602060002090601f016020900481019282612c555760008555612c9c565b82601f10612c6e57805160ff1916838001178555612c9c565b82800160010185558215612c9c579182015b82811115612c9b578251825591602001919060010190612c80565b5b509050612ca99190612cad565b5090565b5b80821115612cc6576000816000905550600101612cae565b5090565b6000612cdd612cd884614154565b614123565b905082815260208101848484011115612cf557600080fd5b612d0084828561439a565b509392505050565b600081359050612d1781614555565b92915050565b600081359050612d2c8161456c565b92915050565b600081359050612d4181614583565b92915050565b600081519050612d5681614583565b92915050565b600082601f830112612d6d57600080fd5b8135612d7d848260208601612cca565b91505092915050565b600081359050612d958161459a565b92915050565b600060208284031215612dad57600080fd5b6000612dbb84828501612d08565b91505092915050565b60008060408385031215612dd757600080fd5b6000612de585828601612d08565b9250506020612df685828601612d08565b9150509250929050565b600080600060608486031215612e1557600080fd5b6000612e2386828701612d08565b9350506020612e3486828701612d08565b9250506040612e4586828701612d86565b9150509250925092565b60008060008060808587031215612e6557600080fd5b6000612e7387828801612d08565b9450506020612e8487828801612d08565b9350506040612e9587828801612d86565b925050606085013567ffffffffffffffff811115612eb257600080fd5b612ebe87828801612d5c565b91505092959194509250565b60008060408385031215612edd57600080fd5b6000612eeb85828601612d08565b9250506020612efc85828601612d1d565b9150509250929050565b60008060408385031215612f1957600080fd5b6000612f2785828601612d08565b9250506020612f3885828601612d86565b9150509250929050565b600060208284031215612f5457600080fd5b6000612f6284828501612d32565b91505092915050565b600060208284031215612f7d57600080fd5b6000612f8b84828501612d47565b91505092915050565b600060208284031215612fa657600080fd5b6000612fb484828501612d86565b91505092915050565b6000612fc98383613aa9565b905092915050565b612fda81614326565b82525050565b6000612feb82614194565b612ff581856141c2565b93508360208202850161300785614184565b8060005b8581101561304357848403895281516130248582612fbd565b945061302f836141b5565b925060208a0199505060018101905061300b565b50829750879550505050505092915050565b61305e81614338565b82525050565b600061306f8261419f565b61307981856141d3565b93506130898185602086016143a9565b61309281614544565b840191505092915050565b60006130a8826141aa565b6130b281856141e4565b93506130c28185602086016143a9565b6130cb81614544565b840191505092915050565b60006130e1826141aa565b6130eb81856141f5565b93506130fb8185602086016143a9565b61310481614544565b840191505092915050565b600061311a826141aa565b6131248185614206565b93506131348185602086016143a9565b80840191505092915050565b600061314d600b83614206565b91507f202d2d204e465420233a200000000000000000000000000000000000000000006000830152600b82019050919050565b600061318d6032836141f5565b91507f4552433732313a207472616e7366657220746f206e6f6e20455243373231526560008301527f63656976657220696d706c656d656e74657200000000000000000000000000006020830152604082019050919050565b60006131f36026836141f5565b91507f4f776e61626c653a206e6577206f776e657220697320746865207a65726f206160008301527f64647265737300000000000000000000000000000000000000000000000000006020830152604082019050919050565b60006132596028836141f5565b91507f4572726f723a20626f7373206d757374206861766520485020746f206174746160008301527f636b20626f73732e0000000000000000000000000000000000000000000000006020830152604082019050919050565b60006132bf601c836141f5565b91507f4552433732313a20746f6b656e20616c7265616479206d696e746564000000006000830152602082019050919050565b60006132ff600e83614206565b91507f2c20226d61785f76616c7565223a0000000000000000000000000000000000006000830152600e82019050919050565b600061333f6024836141f5565b91507f4552433732313a207472616e7366657220746f20746865207a65726f2061646460008301527f72657373000000000000000000000000000000000000000000000000000000006020830152604082019050919050565b60006133a56019836141f5565b91507f4552433732313a20617070726f766520746f2063616c6c6572000000000000006000830152602082019050919050565b60006133e5602c836141f5565b91507f4552433732313a206f70657261746f7220717565727920666f72206e6f6e657860008301527f697374656e7420746f6b656e00000000000000000000000000000000000000006020830152604082019050919050565b600061344b6038836141f5565b91507f4552433732313a20617070726f76652063616c6c6572206973206e6f74206f7760008301527f6e6572206e6f7220617070726f76656420666f7220616c6c00000000000000006020830152604082019050919050565b60006134b1602a836141f5565b91507f4552433732313a2062616c616e636520717565727920666f7220746865207a6560008301527f726f2061646472657373000000000000000000000000000000000000000000006020830152604082019050919050565b60006135176029836141f5565b91507f4552433732313a206f776e657220717565727920666f72206e6f6e657869737460008301527f656e7420746f6b656e00000000000000000000000000000000000000000000006020830152604082019050919050565b600061357d602d836141f5565b91507f4572726f723a20636861726163746572206d757374206861766520485020746f60008301527f2061747461636b20626f73732e000000000000000000000000000000000000006020830152604082019050919050565b60006135e3600483614206565b91507f7d205d7d000000000000000000000000000000000000000000000000000000006000830152600482019050919050565b60006136236020836141f5565b91507f4552433732313a206d696e7420746f20746865207a65726f20616464726573736000830152602082019050919050565b6000613663602c836141f5565b91507f4552433732313a20617070726f76656420717565727920666f72206e6f6e657860008301527f697374656e7420746f6b656e00000000000000000000000000000000000000006020830152604082019050919050565b60006136c96020836141f5565b91507f4f776e61626c653a2063616c6c6572206973206e6f7420746865206f776e65726000830152602082019050919050565b6000613709606283614206565b91507f222c20226465736372697074696f6e223a20225468697320697320616e204e4660008301527f542074686174206c6574732070656f706c6520706c617920696e20746865206760208301527f616d652041627374726163742061747461636b7321222c2022696d616765223a60408301527f20220000000000000000000000000000000000000000000000000000000000006060830152606282019050919050565b60006137bb6029836141f5565b91507f4552433732313a207472616e73666572206f6620746f6b656e2074686174206960008301527f73206e6f74206f776e00000000000000000000000000000000000000000000006020830152604082019050919050565b6000613821600a83614206565b91507f7b226e616d65223a2022000000000000000000000000000000000000000000006000830152600a82019050919050565b60006138616021836141f5565b91507f4552433732313a20617070726f76616c20746f2063757272656e74206f776e6560008301527f72000000000000000000000000000000000000000000000000000000000000006020830152604082019050919050565b60006138c7601d83614206565b91507f646174613a6170706c69636174696f6e2f6a736f6e3b6261736536342c0000006000830152601d82019050919050565b60006139076031836141f5565b91507f4552433732313a207472616e736665722063616c6c6572206973206e6f74206f60008301527f776e6572206e6f7220617070726f7665640000000000000000000000000000006020830152604082019050919050565b600061396d603d83614206565b91507f222c202261747472696275746573223a205b207b202274726169745f7479706560008301527f223a20224865616c746820506f696e7473222c202276616c7565223a200000006020830152603d82019050919050565b60006139d3602d83614206565b91507f7d2c207b202274726169745f74797065223a202241747461636b2044616d616760008301527f65222c202276616c7565223a20000000000000000000000000000000000000006020830152602d82019050919050565b600060a0830160008301518482036000860152613a49828261309d565b91505060208301518482036020860152613a63828261309d565b9150506040830151613a786040860182613bc9565b506060830151613a8b6060860182613bc9565b506080830151613a9e6080860182613bc9565b508091505092915050565b600060c083016000830151613ac16000860182613bc9565b5060208301518482036020860152613ad9828261309d565b91505060408301518482036040860152613af3828261309d565b9150506060830151613b086060860182613bc9565b506080830151613b1b6080860182613bc9565b5060a0830151613b2e60a0860182613bc9565b508091505092915050565b600060c083016000830151613b516000860182613bc9565b5060208301518482036020860152613b69828261309d565b91505060408301518482036040860152613b83828261309d565b9150506060830151613b986060860182613bc9565b506080830151613bab6080860182613bc9565b5060a0830151613bbe60a0860182613bc9565b508091505092915050565b613bd281614390565b82525050565b613be181614390565b82525050565b6000613bf282613814565b9150613bfe828961310f565b9150613c0982613140565b9150613c15828861310f565b9150613c20826136fc565b9150613c2c828761310f565b9150613c3782613960565b9150613c43828661310f565b9150613c4e826132f2565b9150613c5a828561310f565b9150613c65826139c6565b9150613c71828461310f565b9150613c7c826135d6565b9150819050979650505050505050565b6000613c97826138ba565b9150613ca3828461310f565b915081905092915050565b6000602082019050613cc36000830184612fd1565b92915050565b6000608082019050613cde6000830187612fd1565b613ceb6020830186612fd1565b613cf86040830185613bd8565b8181036060830152613d0a8184613064565b905095945050505050565b6000606082019050613d2a6000830186612fd1565b613d376020830185613bd8565b613d446040830184613bd8565b949350505050565b60006020820190508181036000830152613d668184612fe0565b905092915050565b6000602082019050613d836000830184613055565b92915050565b60006020820190508181036000830152613da381846130d6565b905092915050565b600060a0820190508181036000830152613dc581886130d6565b90508181036020830152613dd981876130d6565b9050613de86040830186613bd8565b613df56060830185613bd8565b613e026080830184613bd8565b9695505050505050565b60006020820190508181036000830152613e2581613180565b9050919050565b60006020820190508181036000830152613e45816131e6565b9050919050565b60006020820190508181036000830152613e658161324c565b9050919050565b60006020820190508181036000830152613e85816132b2565b9050919050565b60006020820190508181036000830152613ea581613332565b9050919050565b60006020820190508181036000830152613ec581613398565b9050919050565b60006020820190508181036000830152613ee5816133d8565b9050919050565b60006020820190508181036000830152613f058161343e565b9050919050565b60006020820190508181036000830152613f25816134a4565b9050919050565b60006020820190508181036000830152613f458161350a565b9050919050565b60006020820190508181036000830152613f6581613570565b9050919050565b60006020820190508181036000830152613f8581613616565b9050919050565b60006020820190508181036000830152613fa581613656565b9050919050565b60006020820190508181036000830152613fc5816136bc565b9050919050565b60006020820190508181036000830152613fe5816137ae565b9050919050565b6000602082019050818103600083015261400581613854565b9050919050565b60006020820190508181036000830152614025816138fa565b9050919050565b600060208201905081810360008301526140468184613a2c565b905092915050565b600060208201905081810360008301526140688184613b39565b905092915050565b60006020820190506140856000830184613bd8565b92915050565b600060c0820190506140a06000830189613bd8565b81810360208301526140b281886130d6565b905081810360408301526140c681876130d6565b90506140d56060830186613bd8565b6140e26080830185613bd8565b6140ef60a0830184613bd8565b979650505050505050565b600060408201905061410f6000830185613bd8565b61411c6020830184613bd8565b9392505050565b6000604051905081810181811067ffffffffffffffff8211171561414a57614149614515565b5b8060405250919050565b600067ffffffffffffffff82111561416f5761416e614515565b5b601f19601f8301169050602081019050919050565b6000819050602082019050919050565b600081519050919050565b600081519050919050565b600081519050919050565b6000602082019050919050565b600082825260208201905092915050565b600082825260208201905092915050565b600082825260208201905092915050565b600082825260208201905092915050565b600081905092915050565b600061421c82614390565b915061422783614390565b9250827fffffffffffffffffffffffffffffffffffffffffffffffffffffffffffffffff0382111561425c5761425b614488565b5b828201905092915050565b600061427282614390565b915061427d83614390565b92508261428d5761428c6144b7565b5b828204905092915050565b60006142a382614390565b91506142ae83614390565b9250817fffffffffffffffffffffffffffffffffffffffffffffffffffffffffffffffff04831182151516156142e7576142e6614488565b5b828202905092915050565b60006142fd82614390565b915061430883614390565b92508282101561431b5761431a614488565b5b828203905092915050565b600061433182614370565b9050919050565b60008115159050919050565b60007fffffffff0000000000000000000000000000000000000000000000000000000082169050919050565b600073ffffffffffffffffffffffffffffffffffffffff82169050919050565b6000819050919050565b82818337600083830152505050565b60005b838110156143c75780820151818401526020810190506143ac565b838111156143d6576000848401525b50505050565b600060028204905060018216806143f457607f821691505b60208210811415614408576144076144e6565b5b50919050565b600061441982614390565b91507fffffffffffffffffffffffffffffffffffffffffffffffffffffffffffffffff82141561444c5761444b614488565b5b600182019050919050565b600061446282614390565b915061446d83614390565b92508261447d5761447c6144b7565b5b828206905092915050565b7f4e487b7100000000000000000000000000000000000000000000000000000000600052601160045260246000fd5b7f4e487b7100000000000000000000000000000000000000000000000000000000600052601260045260246000fd5b7f4e487b7100000000000000000000000000000000000000000000000000000000600052602260045260246000fd5b7f4e487b7100000000000000000000000000000000000000000000000000000000600052604160045260246000fd5b6000601f19601f8301169050919050565b61455e81614326565b811461456957600080fd5b50565b61457581614338565b811461458057600080fd5b50565b61458c81614344565b811461459757600080fd5b50565b6145a381614390565b81146145ae57600080fd5b5056fe4142434445464748494a4b4c4d4e4f505152535455565758595a6162636465666768696a6b6c6d6e6f707172737475767778797a303132333435363738392b2fa2646970667358221220c4cb88acc069a8cfb213904ece8c1b740ddd863d8fe6bd8bc38cd11cb3acea5e64736f6c63430008000033",
  "immutableReferences": {},
  "source": "// SPDX-License-Identifier: MIT\n\npragma solidity ^0.8.0;\n/// [MIT License]\n/// @title NFTGAME\n/// @notice smart contract for a simple NFT game\n\n/// @notice inhert NFT (ERC721) contract from openzeppelin.\nimport \"@openzeppelin/contracts/token/ERC721/ERC721.sol\";\nimport \"@openzeppelin/contracts/access/Ownable.sol\";\n\n/// @notice Helper functions OpenZeppelin provides.\nimport \"@openzeppelin/contracts/utils/Counters.sol\";\nimport \"@openzeppelin/contracts/utils/Strings.sol\";\n\n/// @notice Helper function  to encode in Base64\nimport \"./libraries/Base64.sol\";\n\n// import \"truffle/console.sol\";\n\n/// @notice Abstract Wars NFTGAME contract inherits from ERC721, which is the standard NFT contract!\ncontract NFTGAME is ERC721, Ownable {\n    /**\n     * @notice hold all character's attributes in a struct.\n     * @param characterIndex The index of the character\n     * @param name  The name of the character\n     * @param imageURI The image of the character\n     * @param hp The current health points of the character\n     * @param maxHp The maximum health points of the character\n     * @param attackDamage The attack Damaga of the character\n     */\n    struct CharacterAttributes {\n        uint256 characterIndex;\n        string name;\n        string imageURI;\n        uint256 hp;\n        uint256 maxHp;\n        uint256 attackDamage;\n    }\n\n    /**\n     * @dev The tokenId is the NFTs unique identifier, it's just a number that goes\n                0, 1, 2, 3, etc.\n     */\n    using Counters for Counters.Counter;\n    Counters.Counter private _tokenIds;\n\n    /**\n     * @dev An array that helps hold the default data for the charactes \n            this will be helpful when minting new characters in order to \n            know thier attributes \n     */\n\n    CharacterAttributes[] defaultCharacters;\n\n    /// @notice  create a mapping from the nft's tokenId => that NFTs attributes.\n    mapping(uint256 => CharacterAttributes) public nftHolderAttributes;\n\n    /**\n     * @notice A mapping from an address => the NFTs tokenId. provides a simple \n               way to store the owner of the NFT and reference it later\n     */\n    mapping(address => uint256) public nftHolders;\n\n    /**\n     * @notice hold all boss's attributes in a struct.\n     * @param name  The name of the boss\n     * @param imageURI The image of the boss\n     * @param hp The current health points of the boss\n     * @param maxHp The maximum health points of the boss\n     * @param attackDamage The attack Damaga of the boss\n     */\n    struct BigBoss {\n        string name;\n        string imageURI;\n        uint256 hp;\n        uint256 maxHp;\n        uint256 attackDamage;\n    }\n\n    BigBoss public bigBoss;\n\n    /**\n     * @notice an event for minted NFTS.\n     * @param sender  the NFT owner\n     * @param tokenId the NFT Id\n     * @param characterIndex index of the minted character .\n     */\n\n    event CharacterNFTMinted(\n        address sender,\n        uint256 tokenId,\n        uint256 characterIndex\n    );\n\n    /// @notice an event that fires after a player attack the boss\n    event AttackComplete(uint256 newBossHp, uint256 newPlayerHp);\n\n    /// @notice an event that fires after a owner restore Boss Health\n    event RestoreHealth(uint256 oldBossHp, uint256 newBossHp);\n\n    /**\n     * @notice this is a constructor that contains all characters/boss attr.\n     * @dev characters attr. are an array, because we have many of them\n            but boss isnt as there is only a single boss.\n     * @notice the NFT token name is declared here. \n     */\n    constructor(\n        string[] memory characterNames,\n        string[] memory characterImageURIs,\n        uint256[] memory characterHp,\n        uint256[] memory characterAttackDmg,\n        string memory bossName,\n        string memory bossImageURI,\n        uint256 bossHp,\n        uint256 bossAttackDamage\n    ) ERC721(\"Abstracts\", \"ABT\") {\n        /// @notice Initialize the boss. Save it to our global \"bigBoss\" state variable.\n        bigBoss = BigBoss({\n            name: bossName,\n            imageURI: bossImageURI,\n            hp: bossHp,\n            maxHp: bossHp,\n            attackDamage: bossAttackDamage\n        });\n        // console.log(\n        //     \"Done initializing boss %s w/ HP %s, img %s\",\n        //     bigBoss.name,\n        //     bigBoss.hp,\n        //     bigBoss.imageURI\n        // );\n\n        /**\n        * @notice Loop through all the characters, and save their attributes.'s values \n                  in our contract so  we can use them later when we mint our NFTs.   \n        */\n        for (uint256 i = 0; i < characterNames.length; i += 1) {\n            defaultCharacters.push(\n                CharacterAttributes({\n                    characterIndex: i,\n                    name: characterNames[i],\n                    imageURI: characterImageURIs[i],\n                    hp: characterHp[i],\n                    maxHp: characterHp[i],\n                    attackDamage: characterAttackDmg[i]\n                })\n            );\n            // CharacterAttributes memory c = defaultCharacters[i];\n\n            // console.log(\n            //     \"Done initializing %s w/ HP %s, img %s\",\n            //     c.name,\n            //     c.hp,\n            //     c.imageURI\n            // );\n        }\n\n        /**\n        * @dev tokenIds is incremented here so that the first NFT has an ID of 1\n               instead of 0   \n        */\n        _tokenIds.increment();\n    }\n\n    // Users would be able to hit this function and get their NFT based on the\n    // characterId they send in!\n\n    /**\n    * @notice a Character minting function\n    * @dev Users would be able to hit this function and get their NFT based on the\n           characterId they send in!\n    * @param _characterIndex  character Id \n    */\n    function mintCharacterNFT(uint256 _characterIndex) external {\n        //@notice Get current tokenId (starts at 1 since we incremented in the constructor).\n        uint256 newItemId = _tokenIds.current();\n        ///@notice The magical function from the ERC721 contract ! Assigns the tokenId to the caller's wallet address.\n        _safeMint(msg.sender, newItemId);\n\n        ///@notice  map the tokenId => their character attributes\n        nftHolderAttributes[newItemId] = CharacterAttributes({\n            characterIndex: _characterIndex,\n            name: defaultCharacters[_characterIndex].name,\n            imageURI: defaultCharacters[_characterIndex].imageURI,\n            hp: defaultCharacters[_characterIndex].hp,\n            maxHp: defaultCharacters[_characterIndex].hp,\n            attackDamage: defaultCharacters[_characterIndex].attackDamage\n        });\n\n        // console.log(\n        //     \"Minted NFT w/ tokenId %s and characterIndex %s\",\n        //     newItemId,\n        //     _characterIndex\n        // );\n\n        ///@notice Keep an easy way to see who owns what NFT.\n        nftHolders[msg.sender] = newItemId;\n\n        ///@notice Increment the tokenId for the next person that uses it\n        _tokenIds.increment();\n\n        // emit event\n        emit CharacterNFTMinted(msg.sender, newItemId, _characterIndex);\n    }\n\n    /**\n     * @notice Standard tokenURI function\n     * @dev this function basically attach nftHolderAttributes to the tokenURI by overriding it\n     * @param _tokenId  expects a NFT data in JSON\n     * @return NFT with Assigned Metadata\n     */\n\n    function tokenURI(uint256 _tokenId)\n        public\n        view\n        override\n        returns (string memory)\n    {\n        // /**\n        //  * @notice retrieves this specific NFTs data by querying for it using it's _tokenId\n        //  * @dev if I did tokenURI(256) it would return the JSON data related the 256th NFT (if it existed!).\n        //  */\n        CharacterAttributes memory charAttributes = nftHolderAttributes[\n            _tokenId\n        ];\n\n        string memory strHp = Strings.toString(charAttributes.hp);\n        string memory strMaxHp = Strings.toString(charAttributes.maxHp);\n        string memory strAttackDamage = Strings.toString(\n            charAttributes.attackDamage\n        );\n\n        // /**\n        // * @notice takes all the data provided by tokenId and pack it dynamically here\n        // * @dev abi.encodePacked just combines strings. its done because we can\n        //        change things like the NFTs HP or image later if we wanted and it'd\n        //        update on the NFT itself! It's dynamic.\n        // */\n        string memory json = Base64.encode(\n            bytes(\n                string(\n                    abi.encodePacked(\n                        '{\"name\": \"',\n                        charAttributes.name,\n                        \" -- NFT #: \",\n                        Strings.toString(_tokenId),\n                        '\", \"description\": \"This is an NFT that lets people play in the game Abstract attacks!\", \"image\": \"',\n                        charAttributes.imageURI,\n                        '\", \"attributes\": [ { \"trait_type\": \"Health Points\", \"value\": ',\n                        strHp,\n                        ', \"max_value\":',\n                        strMaxHp,\n                        '}, { \"trait_type\": \"Attack Damage\", \"value\": ',\n                        strAttackDamage,\n                        \"} ]}\"\n                    )\n                )\n            )\n        );\n\n        //\n        //  * @notice encode the formatted json file into base64\n        //  * @dev this is done because it makes it readable by browsers\n        //\n\n        string memory output = string(\n            abi.encodePacked(\"data:application/json;base64,\", json)\n        );\n\n        return output;\n    }\n\n    /**\n     * @notice function that allow players nft to attack boss nft\n     */\n    function attackBoss() public {\n        //  Get the state of the player's NFT.\n        uint256 nftTokenIdOfPlayer = nftHolders[msg.sender];\n        CharacterAttributes storage player = nftHolderAttributes[\n            nftTokenIdOfPlayer\n        ];\n        // console.log(\n        //     \"\\nPlayer w/ character %s about to attack. Has %s HP and %s AD\",\n        //     player.name,\n        //     player.hp,\n        //     player.attackDamage\n        // );\n        // console.log(\n        //     \"Boss %s has %s HP and %s AD\",\n        //     bigBoss.name,\n        //     bigBoss.hp,\n        //     bigBoss.attackDamage\n        // );\n        ///@notice Make sure the player has more than 0 HP.\n        require(player.hp > 0, \"Error: character must have HP to attack boss.\");\n\n        ///@notice Make sure the boss has more than 0 HP.\n        require(bigBoss.hp > 0, \"Error: boss must have HP to attack boss.\");\n\n        /**\n        * @notice Allow player to attack boss.\n        * @dev hp is uint which cant be negative , this why it's assigned to 0,\n               in case it was going to be negative \n        */\n        if (bigBoss.hp < player.attackDamage) {\n            bigBoss.hp = 0;\n        } else {\n            bigBoss.hp = bigBoss.hp - player.attackDamage;\n        }\n        ///@notice Allow boss to attack player.\n        if (player.hp < bigBoss.attackDamage) {\n            player.hp = 0;\n        } else {\n            player.hp = player.hp - bigBoss.attackDamage;\n        }\n\n        // // Console for ease.\n        // console.log(\"Player attacked boss. New boss hp: %s\", bigBoss.hp);\n        // console.log(\"Boss attacked player. New player hp: %s\\n\", player.hp);\n\n        ///@notice emit the new boss and player health points\n        emit AttackComplete(bigBoss.hp, player.hp);\n    }\n\n    /**\n     * @notice check if a user has a character NFT we've given them\n     * @dev this function mainly serves the webapp , as we need to be able to retrieve player's NFT\n     * @return  retrieve the NFT's attributes if the NFT exists\n     */\n\n    function checkIfUserHasNFT()\n        public\n        view\n        returns (CharacterAttributes memory)\n    {\n        // Get the tokenId of the user's character NFT\n        uint256 userNftTokenId = nftHolders[msg.sender];\n\n        /**\n        * @notice If the user has a tokenId in the map, return their character.\n        * @dev we do userNftTokenId > 0, because there's no way to check if \n               a key in a map exists , No matter what key we look for, \n               there will be a default value of 0. Hence nft tokenId start with 1\n        */\n        if (userNftTokenId > 0) {\n            return nftHolderAttributes[userNftTokenId];\n        }\n        ///@notice Else, return an empty character.\n        else {\n            CharacterAttributes memory emptyStruct;\n            return emptyStruct;\n        }\n    }\n\n    /**\n     * @notice  function that Retrieve all default characters.\n     * @dev this function will mainly be useful in our character select screen\n     * @return   all default characters.\n     */\n\n    function getAllDefaultCharacters()\n        public\n        view\n        returns (CharacterAttributes[] memory)\n    {\n        return defaultCharacters;\n    }\n\n    /**\n     * @notice  Retrieve the boss\n     */\n\n    function getBigBoss() public view returns (BigBoss memory) {\n        return bigBoss;\n    }\n\n    /**\n     * @notice  restore the boss health\n     */\n\n    function RestoreBossHealth() public onlyOwner {\n        uint256 oldhealth = bigBoss.hp;\n        bigBoss.hp = bigBoss.maxHp;\n        emit RestoreHealth(oldhealth, bigBoss.hp);\n    }\n}\n",
  "sourcePath": "D:\\blcokchain bootcamp\\blockchain-developer-bootcamp-final-project\\smart-contract\\contracts\\NFTGAME.sol",
  "compiler": {
    "name": "solc",
    "version": "0.8.0+commit.c7dfd78e.Emscripten.clang"
  },
  "schemaVersion": "3.4.3",
  "updatedAt": "2021-11-08T16:14:23.379Z",
  "networkType": "ethereum",
  "devdoc": {
    "events": {
      "CharacterNFTMinted(address,uint256,uint256)": {
        "params": {
          "characterIndex": "index of the minted character .",
          "sender": "the NFT owner",
          "tokenId": "the NFT Id"
        }
      }
    },
    "kind": "dev",
    "methods": {
      "approve(address,uint256)": {
        "details": "See {IERC721-approve}."
      },
      "balanceOf(address)": {
        "details": "See {IERC721-balanceOf}."
      },
      "checkIfUserHasNFT()": {
        "details": "this function mainly serves the webapp , as we need to be able to retrieve player's NFT",
        "returns": {
          "_0": "retrieve the NFT's attributes if the NFT exists"
        }
      },
      "constructor": {
        "details": "characters attr. are an array, because we have many of them but boss isnt as there is only a single boss."
      },
      "getAllDefaultCharacters()": {
        "details": "this function will mainly be useful in our character select screen",
        "returns": {
          "_0": "all default characters."
        }
      },
      "getApproved(uint256)": {
        "details": "See {IERC721-getApproved}."
      },
      "isApprovedForAll(address,address)": {
        "details": "See {IERC721-isApprovedForAll}."
      },
      "mintCharacterNFT(uint256)": {
        "details": "Users would be able to hit this function and get their NFT based on the characterId they send in!",
        "params": {
          "_characterIndex": "character Id "
        }
      },
      "name()": {
        "details": "See {IERC721Metadata-name}."
      },
      "owner()": {
        "details": "Returns the address of the current owner."
      },
      "ownerOf(uint256)": {
        "details": "See {IERC721-ownerOf}."
      },
      "renounceOwnership()": {
        "details": "Leaves the contract without owner. It will not be possible to call `onlyOwner` functions anymore. Can only be called by the current owner. NOTE: Renouncing ownership will leave the contract without an owner, thereby removing any functionality that is only available to the owner."
      },
      "safeTransferFrom(address,address,uint256)": {
        "details": "See {IERC721-safeTransferFrom}."
      },
      "safeTransferFrom(address,address,uint256,bytes)": {
        "details": "See {IERC721-safeTransferFrom}."
      },
      "setApprovalForAll(address,bool)": {
        "details": "See {IERC721-setApprovalForAll}."
      },
      "supportsInterface(bytes4)": {
        "details": "See {IERC165-supportsInterface}."
      },
      "symbol()": {
        "details": "See {IERC721Metadata-symbol}."
      },
      "tokenURI(uint256)": {
        "details": "this function basically attach nftHolderAttributes to the tokenURI by overriding it",
        "params": {
          "_tokenId": "expects a NFT data in JSON"
        },
        "returns": {
          "_0": "NFT with Assigned Metadata"
        }
      },
      "transferFrom(address,address,uint256)": {
        "details": "See {IERC721-transferFrom}."
      },
      "transferOwnership(address)": {
        "details": "Transfers ownership of the contract to a new account (`newOwner`). Can only be called by the current owner."
      }
    },
    "stateVariables": {
      "defaultCharacters": {
        "details": "An array that helps hold the default data for the charactes  this will be helpful when minting new characters in order to  know thier attributes "
      }
    },
    "version": 1
  },
  "userdoc": {
    "events": {
      "AttackComplete(uint256,uint256)": {
        "notice": "an event that fires after a player attack the boss"
      },
      "CharacterNFTMinted(address,uint256,uint256)": {
        "notice": "an event for minted NFTS."
      },
      "RestoreHealth(uint256,uint256)": {
        "notice": "an event that fires after a owner restore Boss Health"
      }
    },
    "kind": "user",
    "methods": {
      "RestoreBossHealth()": {
        "notice": "restore the boss health"
      },
      "attackBoss()": {
        "notice": "function that allow players nft to attack boss nft"
      },
      "checkIfUserHasNFT()": {
        "notice": "check if a user has a character NFT we've given them"
      },
      "constructor": {
        "notice": "this is a constructor that contains all characters/boss attr.the NFT token name is declared here. "
      },
      "getAllDefaultCharacters()": {
        "notice": "function that Retrieve all default characters."
      },
      "getBigBoss()": {
        "notice": "Retrieve the boss"
      },
      "mintCharacterNFT(uint256)": {
        "notice": "a Character minting function"
      },
      "nftHolderAttributes(uint256)": {
        "notice": "create a mapping from the nft's tokenId => that NFTs attributes."
      },
      "nftHolders(address)": {
        "notice": "A mapping from an address => the NFTs tokenId. provides a simple  way to store the owner of the NFT and reference it later"
      },
      "tokenURI(uint256)": {
        "notice": "Standard tokenURI function"
      }
    },
    "notice": "Abstract Wars NFTGAME contract inherits from ERC721, which is the standard NFT contract!",
    "version": 1
  }
}